S00E00004C425F3230532E7372656374
S3150800800000C000208DA4000895A200089BA20008C5
S31508008010A1A20008A7A20008ADA20008000000005F
S31508008020000000000000000000000000B3A20008E5
S31508008030BFA2000800000000CBA20008D7A20008D3
S31508008040DDA40008DDA40008DDA40008DDA40008FE
S31508008050DDA40008DDA40008DDA40008DDA40008EE
S31508008060DDA40008DDA40008DDA40008DDA40008DE
S31508008070DDA40008DDA40008DDA40008DDA40008CE
S31508008080DDA40008DDA40008DDA40008DDA40008BE
S31508008090DDA40008DDA40008DDA40008DDA40008AE
S315080080A0DDA40008DDA40008DDA40008DDA400089E
S315080080B0DDA40008E9A20008DDA40008DDA4000884
S315080080C0DDA40008DDA40008DDA40008DDA400087E
S315080080D0DDA40008DDA40008DDA40008DDA400086E
S315080080E0DDA40008DDA40008DDA40008DDA400085E
S315080080F0DDA40008DDA40008DDA40008DDA400084E
S31508008100DDA40008DDA40008DDA40008DDA400083D
S31508008110DDA40008DDA40008DDA40008DDA400082D
S31508008120FDA20008DDA40008DDA40008DDA40008FF
S31508008130DDA400080000000000000000DDA400081F
S3150800814011A30008DDA40008DDA40008DDA40008CA
S31508008150DDA40008DDA40008DDA4000825A30008A6
S31508008160DDA40008DDA40008DDA40008DDA40008DD
S31508008170DDA40008DDA400080000000000000000DF
S30908008180DDA4000864
S3150800818810B5054C237833B9044B13B10448AFF33B
S3150800819800800123237010BD080C00200000000091
S315080081A86CAB010808B5034B1BB103490348AFF389
S315080081B8008008BD000000000C0C00206CAB01080C
S315080081C8034613F8012B002AFBD1181A0138704701
S315080081D881F0004102E000BF83F0004330B54FEA62
S315080081E841044FEA430594EA050F08BF90EA020FCF
S315080081F81FBF54EA000C55EA020C7FEA645C7FEA62
S31508008208655C00F0E2804FEA5454D4EB5555B8BF84
S315080082186D420CDD2C4480EA020281EA030382EAF5
S31508008228000083EA010180EA020281EA0303362D87
S3150800823888BF30BD11F0004F4FEA01314FF4801C5A
S315080082484CEA113102D0404261EB410113F0004F6C
S315080082584FEA03334CEA133302D0524263EB430323
S3150800826894EA050F00F0A780A4F10104D5F1200EC1
S315080082780DDB02FA0EFC22FA05F2801841F100011C
S3150800828803FA0EF2801843FA05F359410EE0A5F1F0
S3150800829820050EF1200E012A03FA0EFC28BF4CF021
S315080082A8020C43FA05F3C01851EBE37101F00045D7
S315080082B807D54FF0000EDCF1000C7EEB00006EEBE4
S315080082C80101B1F5801F1BD3B1F5001F0CD349086E
S315080082D85FEA30004FEA3C0C04F101044FEA4452C5
S315080082E812F5800F80F09A80BCF1004F08BF5FEA4C
S315080082F8500C50F1000041EB045141EA050130BD2C
S315080083085FEA4C0C404141EB0101013C28BFB1F53D
S31508008318801FE9D291F0000F04BF01460020B1FA88
S3150800832881F308BF2033A3F10B03B3F120020CDA5B
S315080083380C3208DD02F1140CC2F10C0201FA0CF039
S3150800834821FA02F10CE002F11402D8BFC2F1200C9E
S3150800835801FA02F120FA0CFCDCBF41EA0C01904054
S31508008368E41AA2BF01EB0451294330BD6FEA04049D
S315080083781F3C1CDA0C340EDC04F11404C4F1200288
S3150800838820FA04F001FA02F340EA030021FA04F39A
S3150800839845EA030130BDC4F10C04C4F1200220FAF1
S315080083A802F001FA04F340EA0300294630BD21FA2F
S315080083B804F0294630BD94F0000F83F4801306BFF5
S315080083C881F480110134013D4EE77FEA645C18BFE9
S315080083D87FEA655C29D094EA050F08BF90EA020F80
S315080083E805D054EA000C04BF1946104630BD91EA78
S315080083F8030F1EBF0021002030BD5FEA545C05D17B
S315080084084000494128BF41F0004130BD14F58004B9
S315080084183CBF01F5801130BD01F0004545F0FE412D
S3150800842841F470014FF0000030BD7FEA645C1ABF62
S31508008438194610467FEA655C1CBF0B46024650EA99
S31508008448013406BF52EA033591EA030F41F40021C5
S3150800845830BD00BF90F0000F04BF0021704730B54B
S315080084684FF4806404F132044FF000054FF0000120
S3150800847850E700BF90F0000F04BF0021704730B5E1
S315080084884FF4806404F1320410F0004548BF4042B6
S315080084984FF000013EE700BF42004FEAE2014FEA0B
S315080084A831014FEA02701FBF12F07F4393F07F4FE6
S315080084B881F06051704732F07F4208BF704793F0E9
S315080084C87F4F04BF41F40021704730B54FF46074FC
S315080084D801F0004521F000411CE700BF50EA0102FF
S315080084E808BF704730B54FF000050AE050EA0102A8
S315080084F808BF704730B511F0004502D5404261EB18
S3150800850841014FF4806404F132045FEA915C3FF458
S31508008518D8AE4FF003025FEADC0C18BF03325FEAF5
S31508008528DC0C18BF033202EBDC02C2F1200300FAA6
S3150800853803FC20FA02F001FA03FE40EA0E0021FACB
S3150800854802F11444BDE600BF70B54FF0FF0C4CF4B9
S31508008558E06C1CEA11541DBF1CEA135594EA0C0F6B
S3150800856895EA0C0F00F0DEF82C4481EA030621EAA6
S315080085784C5123EA4C5350EA013518BF52EA0335E1
S3150800858841F4801143F4801338D0A0FB02CE4FF093
S315080085980005E1FB02E506F00042E0FB03E54FF0C3
S315080085A80006E1FB03569CF0000F18BF4EF0010EBB
S315080085B8A4F1FF04B6F5007F64F5407404D25FEAB7
S315080085C84E0E6D4146EB060642EAC62141EA55516A
S315080085D84FEAC52040EA5E504FEACE2EB4F1FD0CAC
S315080085E888BFBCF5E06F1ED8BEF1004F08BF5FEA2A
S315080085F8500E50F1000041EB045170BD06F00046DC
S3150800860846EA010140EA020081EA0301B4EB5C0488
S31508008618C2BFD4EB0C0541EA045170BD41F4801180
S315080086284FF0000E013C00F3AB8014F1360FDEBFA5
S31508008638002001F0004170BDC4F10004203C35DA81
S315080086480C341BDC04F11404C4F1200500FA05F304
S3150800865820FA04F001FA05F240EA020001F00042A5
S3150800866821F0004110EBD37021FA04F642EB06011B
S315080086785EEA430E08BF20EAD37070BDC4F10C0445
S31508008688C4F1200500FA04F320FA05F001FA04F209
S3150800869840EA020001F0004110EBD37041F10001F5
S315080086A85EEA430E08BF20EAD37070BDC4F1200500
S315080086B800FA05F24EEA020E20FA04F301FA05F268
S315080086C843EA020321FA04F001F0004121FA04F210
S315080086D820EA020000EBD3705EEA430E08BF20EAE0
S315080086E8D37070BD94F0000F0FD101F0004640001A
S315080086F841EB010111F4801F08BF013CF7D041EA9C
S31508008708060195F0000F18BF704703F0004652009F
S3150800871843EB030313F4801F08BF013DF7D043EA70
S315080087280603704794EA0C0F0CEA135518BF95EA26
S315080087380C0F0CD050EA410618BF52EA4306D1D1AD
S3150800874881EA030101F000414FF0000070BD50EACC
S31508008758410606BF1046194652EA430619D094EA56
S315080087680C0F02D150EA013613D195EA0C0F05D140
S3150800877852EA03361CBF104619460AD181EA030194
S3150800878801F0004141F0FE4141F470014FF000004C
S3150800879870BD41F0FE4141F4780170BD70B54FF0E7
S315080087A8FF0C4CF4E06C1CEA11541DBF1CEA135567
S315080087B894EA0C0F95EA0C0F00F0A7F8A4EB050449
S315080087C881EA030E52EA03354FEA013100F0888040
S315080087D84FEA03334FF0805545EA131343EA126309
S315080087E84FEA022245EA111545EA10654FEA0026BE
S315080087F80EF000419D4208BF964244F1FD0404F577
S31508008808407402D25B084FEA3202B61A65EB0305D2
S315080088185B084FEA32024FF480104FF4002CB6EB8F
S31508008828020E75EB030E22BFB61A754640EA0C000F
S315080088385B084FEA3202B6EB020E75EB030E22BF4F
S31508008848B61A754640EA5C005B084FEA3202B6EB90
S31508008858020E75EB030E22BFB61A754640EA9C004F
S315080088685B084FEA3202B6EB020E75EB030E22BF1F
S31508008878B61A754640EADC0055EA060E18D04FEADD
S31508008888051545EA16754FEA06164FEAC30343EA7D
S3150800889852734FEAC2025FEA1C1CC0D111F4801F4A
S315080088A80BD141EA00014FF000004FF0004CB6E743
S315080088B811F4801F04BF01430020B4F1FD0C88BFE2
S315080088C8BCF5E06F3FF6AFAEB5EB030C04BFB6EBED
S315080088D8020C5FEA500C50F1000041EB045170BDE0
S315080088E80EF0004E4EEA113114EB5C04C2BFD4EB0D
S315080088F80C0541EA045170BD41F480114FF0000E91
S31508008908013C90E645EA060E8DE60CEA135594EA0C
S315080089180C0F08BF95EA0C0F3FF43BAF94EA0C0F0F
S315080089280AD150EA01347FF434AF95EA0C0F7FF484
S3150800893825AF104619462CE795EA0C0F06D152EAD8
S3150800894803353FF4FDAE1046194622E750EA4106BC
S3150800895818BF52EA43067FF4C5AE50EA41047FF4CD
S315080089680DAF52EA43057FF4EBAE12E74FF0FF3C32
S3150800897806E000BF4FF0010C02E000BF4FF0010C03
S315080089884DF804CD4FEA410C7FEA6C5C4FEA430C7C
S3150800899818BF7FEA6C5C1BD001B050EA410C0CBFCB
S315080089A852EA430C91EA030F02BF90EA020F00202D
S315080089B8704710F1000F91EA030F58BF994208BF94
S315080089C890422CBFD8176FEAE37040F00100704751
S315080089D84FEA410C7FEA6C5C02D150EA013C07D1A8
S315080089E84FEA430C7FEA6C5CD6D152EA033CD3D0F3
S315080089F85DF8040B704700BF8446104662468C46ED
S31508008A081946634600E000BF01B5FFF7B7FF00281F
S31508008A1848BF10F1000F01BD4DF808EDFFF7F4FF48
S31508008A280CBF012000205DF808FB00BF4DF808EDD3
S31508008A38FFF7EAFF34BF012000205DF808FB00BFF6
S31508008A484DF808EDFFF7E0FF94BF012000205DF818
S31508008A5808FB00BF4DF808EDFFF7CEFF94BF0120CD
S31508008A6800205DF808FB00BF4DF808EDFFF7C4FFC6
S31508008A7834BF012000205DF808FB00BF4FEA410C0F
S31508008A887FEA6C5C02D150EA013C0AD14FEA430CF2
S31508008A987FEA6C5C02D152EA033C02D14FF000002F
S31508008AA870474FF0010070474FEA410212F500126D
S31508008AB815D211D56FF47873B3EB625212D94FEA0F
S31508008AC8C12343F0004343EA505311F0004F23FAF9
S31508008AD802F018BF404270474FF00000704750EA4E
S31508008AE8013005D111F0004008BF6FF0004070470B
S31508008AF84FF00000704700BF4FEA4102B2F1E04369
S31508008B0824BFB3F5001CDCF1FE5C0DD901F0004C5E
S31508008B184FEAC0024CEA5070B2F1004F40EB8300AE
S31508008B2808BF20F00100704711F0804F21D113F1DA
S31508008B383872BCBF01F00040704741F480114FEA13
S31508008B485252C2F11802C2F1200C10FA0CF320FA9C
S31508008B5802F018BF40F001004FEAC1234FEAD323B9
S31508008B6803FA0CFC40EA0C0023FA02F34FEA430323
S31508008B78CCE77FEA625307D150EA01331EBF4FF0AC
S31508008B88FE4040F44000704701F0004040F0FE40C7
S31508008B9840F40000704700BF80F0004002E000BFC4
S31508008BA881F0004142001FBF5FEA410392EA030FC2
S31508008BB87FEA226C7FEA236C6AD04FEA1262D2EB0C
S31508008BC81363C1BFD218414048404140B8BF5B4211
S31508008BD8192B88BF704710F0004F40F4000020F0AA
S31508008BE87F4018BF404211F0004F41F4000121F0C0
S31508008BF87F4118BF494292EA030F3FD0A2F101020A
S31508008C0841FA03FC10EB0C00C3F1200301FA03F147
S31508008C1800F0004302D5494260EB4000B0F5000F6A
S31508008C2813D3B0F1807F06D340084FEA310102F129
S31508008C380102FE2A51D2B1F1004F40EBC25008BFDB
S31508008C4820F0010040EA03007047490040EB0000A5
S31508008C58013A28BFB0F5000FEDD2B0FA80FCACF1A6
S31508008C68080CB2EB0C0200FA0CF0AABF00EBC250D3
S31508008C7852421843BCBFD0401843704792F0000FC1
S31508008C8881F4000106BF80F400000132013BB5E714
S31508008C984FEA41037FEA226C18BF7FEA236C21D08A
S31508008CA892EA030F04D092F0000F08BF08467047EF
S31508008CB890EA010F1CBF0020704712F07F4F04D1BD
S31508008CC8400028BF40F00040704712F100723CBFD0
S31508008CD800F50000704700F0004343F0FE4040F4FA
S31508008CE8000070477FEA226216BF08467FEA2363B8
S31508008CF80146420206BF5FEA412390EA010F40F4A3
S31508008D08800070474FF0000304E000BF10F00043EE
S31508008D1848BF40425FEA000C08BF704743F09643D5
S31508008D2801464FF000001CE050EA010208BF7047F0
S31508008D384FF000030AE000BF50EA010208BF704777
S31508008D4811F0004302D5404261EB41015FEA010C8C
S31508008D5802BF84460146002043F0B64308BFA3F184
S31508008D688053A3F50003BCFA8CF2083AA3EBC25366
S31508008D7810DB01FA02FC634400FA02FCC2F1200285
S31508008D88BCF1004F20FA02F243EB020008BF20F0BC
S31508008D980100704702F1200201FA02FCC2F1200222
S31508008DA850EA4C0021FA02F243EB020008BF20EA17
S31508008DB8DC7070474FF0FF0C1CEAD0521EBF1CEA45
S31508008DC8D15392EA0C0F93EA0C0F6FD01A4480EA33
S31508008DD8010C400218BF5FEA41211ED04FF000631C
S31508008DE843EA501043EA5111A0FB01310CF0004048
S31508008DF8B1F5000F3EBF490041EAD3715B0040EA6E
S31508008E08010062F17F02FD2A1DD8B3F1004F40EB3D
S31508008E18C25008BF20F00100704790F0000F0CF010
S31508008E28004C08BF49024CEA502040EA51207F3AD4
S31508008E38C2BFD2F1FF0340EAC250704740F40000AF
S31508008E484FF00003013A5DDC12F1190FDCBF00F0A0
S31508008E5800407047C2F10002410021FA02F1C2F14E
S31508008E68200200FA02FC5FEA310040F1000053EAEA
S31508008E784C0308BF20EADC70704792F0000F00F038
S31508008E88004C02BF400010F4000F013AF9D040EA3E
S31508008E980C0093F0000F01F0004C02BF490011F4D2
S31508008EA8000F013BF9D041EA0C018FE70CEAD153D0
S31508008EB892EA0C0F18BF93EA0C0F0AD030F0004C50
S31508008EC818BF31F0004CD8D180EA010000F0004004
S31508008ED8704790F0000F17BF90F0004F084691F0C2
S31508008EE8000F91F0004F14D092EA0C0F01D14202FC
S31508008EF80FD193EA0C0F03D14B0218BF084608D1C5
S31508008F0880EA010000F0004040F0FE4040F400000E
S31508008F18704740F0FE4040F4400070474FF0FF0CA1
S31508008F281CEAD0521EBF1CEAD15392EA0C0F93EAE8
S31508008F380C0F69D0A2EB030280EA010C49024FEA3A
S31508008F48402037D04FF0805343EA111143EA1013F3
S31508008F580CF000408B4238BF5B0042F17D024FF4AB
S31508008F68000C8B4224BF5B1A40EA0C00B3EB510F86
S31508008F7824BFA3EB510340EA5C00B3EB910F24BF6F
S31508008F88A3EB910340EA9C00B3EBD10F24BFA3EBF4
S31508008F98D10340EADC001B0118BF5FEA1C1CE0D1BC
S31508008FA8FD2A3FF650AF8B4240EBC25008BF20F06F
S31508008FB8010070470CF0004C4CEA50207F32C2BFC3
S31508008FC8D2F1FF0340EAC250704740F400004FF060
S31508008FD80003013A37E792F0000F00F0004C02BF91
S31508008FE8400010F4000F013AF9D040EA0C0093F05B
S31508008FF8000F01F0004C02BF490011F4000F013BB5
S31508009008F9D041EA0C0195E70CEAD15392EA0C0F1C
S3150800901808D142027FF47DAF93EA0C0F7FF470AF54
S31508009028084676E793EA0C0F04D14B023FF44CAF97
S3150800903808466EE730F0004C18BF31F0004CCAD12C
S3150800904830F000427FF45CAF31F000437FF43CAF68
S315080090585FE700BF4FF0FF3C06E000BF4FF0010C8A
S3150800906802E000BF4FF0010C4DF804CD4FEA40026C
S315080090784FEA41037FEA226C18BF7FEA236C11D0B6
S3150800908801B052EA530C18BF90EA010F58BFB2EB69
S31508009098030088BFC81738BF6FEAE17018BF40F0E9
S315080090A8010070477FEA226C02D15FEA402C05D19D
S315080090B87FEA236CE4D15FEA412CE1D05DF8040B22
S315080090C8704700BF844608466146FFE70FB5FFF7B5
S315080090D8C9FF002848BF10F1000F0FBD4DF808ED6D
S315080090E8FFF7F4FF0CBF012000205DF808FB00BF5E
S315080090F84DF808EDFFF7EAFF34BF012000205DF8B8
S3150800910808FB00BF4DF808EDFFF7E0FF94BF012004
S3150800911800205DF808FB00BF4DF808EDFFF7D2FF01
S3150800912894BF012000205DF808FB00BF4DF808ED44
S31508009138FFF7C8FF34BF012000205DF808FB00BF11
S315080091484FEA4002B2F1FE4F0FD34FF09E03B3EB3E
S3150800915812620DD94FEA002343F0004310F0004F7E
S3150800916823FA02F018BF404270474FF000007047D4
S3150800917812F1610F01D1420205D110F0004008BF73
S315080091886FF0004070474FF00000704742000ED25B
S31508009198B2F1FE4F0BD34FF09E03B3EB126209D41C
S315080091A84FEA002343F0004323FA02F070474FF0D2
S315080091B80000704712F1610F01D1420202D14FF047
S315080091C8FF3070474FF00000704700BF53B94AB9DF
S315080091D8002908BF00281CBF4FF0FF314FF0FF30A9
S315080091E800F076B9ADF1080C6DE904CE00F006F882
S315080091F8DDF804E0DDE9022304B070472DE9F047FD
S31508009208089E0D4604468846002B4DD18A42944648
S3150800921868D9B2FA82F252B101FA02F3C2F1200110
S3150800922820FA01F10CFA02FC41EA030894404FEAD5
S315080092381C41B8FBF1F71FFA8CFE01FB178807FBE0
S315080092480EF0230C43EA084398420AD91CEB030399
S3150800925807F1FF3580F01E81984240F21B81023FD4
S3150800926863441B1AB3FBF1F001FB103300FB0EFE37
S31508009278A4B244EA0344A6450AD91CEB040400F13F
S31508009288FF3380F00981A64540F206816444023816
S315080092980021A4EB0E0440EA07401EB10023D4407F
S315080092A8C6E90043BDE8F0878B4208D9002E00F0CE
S315080092B8EE800021C6E900050846BDE8F087B3FA3E
S315080092C883F100294AD1AB4202D3824200F2FC80DC
S315080092D8841A65EB030301209846002EE2D0C6E9F6
S315080092E80048DFE702B9FFDEB2FA82F2002A40F048
S315080092F89180A1EB0C0001214FEA1C471FFA8CFE4E
S31508009308B0FBF7F307FB1300250C45EA00450EFBEF
S3150800931803F0A84208D91CEB050503F1FF3802D269
S31508009328A84200F2CE8043462D1AB5FBF7F007FB94
S3150800933810550EFB00FEA4B244EA0544A64508D912
S315080093481CEB040400F1FF3502D2A64500F2B680EC
S315080093582846A4EB0E0440EA03409EE7C1F120071D
S315080093688B4022FA07FC4CEA030C25FA07FA4FEA5F
S315080093781C49BAFBF9F820FA07F309FB18AA8D4025
S315080093881FFA8CFE1D4300FA01F308FB0EF02C0C9D
S3150800939844EA0A44A04202FA01F20BD91CEB040477
S315080093A808F1FF3A80F08880A04240F28580A8F14B
S315080093B802086444241AB4FBF9F009FB104400FBBC
S315080093C80EFEADB245EA0444A64508D91CEB0404CA
S315080093D800F1FF356CD2A6456AD90238644440EADA
S315080093E80840A0FB0295A4EB0E04AC42C846AE465C
S315080093F856D353D0002E69D0B3EB080264EB0E049B
S3150800940822FA01F304FA07F71F43CC40C6E90074A9
S31508009418002147E70CFA02FCC2F1200125FA01F3FC
S315080094284FEA1C4720FA01F195400D43B3FBF7F1C3
S3150800943807FB11331FFA8CFE280C40EA034001FB90
S315080094480EF3834204FA02F408D91CEB000001F172
S31508009458FF382FD283422DD902396044C01AB0FB8F
S31508009468F7F307FB1300ADB245EA004503FB0EF018
S31508009478A84208D91CEB050503F1FF3816D2A842FD
S3150800948814D9023B6544281A43EA014138E73146AC
S31508009498304607E72F46E4E61846F9E64B45A9D2CB
S315080094A8B9EB020865EB0C0E0138A3E74346EAE771
S315080094B8284694E74146D1E7D0467BE76444023814
S315080094C847E7023B65442FE7084606E73146E9E6DB
S315080094D8704700BF80B584B000AFF860B9607A609D
S315080094E800224FF480710A4803F072F97B689AB231
S315080094F87B68B968074806F02AFB0346002B01D1A2
S315080095087B6800E0002318461037BD4680BD00BFBB
S3150800951800080240F00E002080B400AF034B044A4E
S315080095289A6000BFBD4680BC704700BF00ED00E0EA
S315080095380080000880B500AFFFF7EEFF00F0CCFF0B
S3150800954800F01BF800F044FB00F022FB00F034FAA8
S3150800955800F098F900F0F2FA00F0C2F900F06CF899
S3150800956800F062F900F0F8F800F05CFA00F090FAFA
S3150800957809F080FB0AF04AFBFCE780B596B000AF15
S3150800958807F128033022002118460BF071FD07F170
S31508009598140300221A605A609A60DA601A613B4618
S315080095A800221A605A609A60DA601A610923BB6257
S315080095B80123FB620123FB6302233B644FF4800308
S315080095C87B641423BB64C023FB6402233B6509231D
S315080095D87B6507F12803184604F0DCF80346002BD8
S315080095E801D000F0ABFB0F237B610223BB6100238C
S315080095F8FB614FF4A0533B624FF480537B6207F13B
S3150800960814030321184604F013FB0346002B01D064
S3150800961800F094FB04233B604FF40073FB603B4661
S31508009628184604F005FD0346002B01D000F086FB1A
S3150800963800BF5837BD4680BD80B584B000AF3B46ED
S3150800964800221A605A609A60DA603F4B3F4A1A60ED
S315080096583D4B00225A603C4B00229A603A4B012245
S315080096681A61394B01221A76374B002283F82020D3
S31508009678354B0022DA62344B354A9A62324B00225D
S31508009688DA60314B0522DA612F4B012283F8302044
S315080096982D4B01225A612C4800F0B0FF0346002BD7
S315080096A801D000F04BFB0A233B6001237B600723AC
S315080096B8BB603B461946244801F0DEF80346002BF2
S315080096C801D000F03BFB0B233B6002237B603B4643
S315080096D819461D4801F0D0F80346002B01D000F0C2
S315080096E82DFB0C233B6003237B603B461946164833
S315080096F801F0C2F80346002B01D000F01FFB0D232A
S315080097083B6004237B603B4619460F4801F0B4F8D2
S315080097180346002B01D000F011FB00233B6005230C
S315080097287B603B461946084801F0A6F80346002B15
S3150800973801D000F003FB05220649034800F0A2FF02
S3150800974800BF1037BD4680BD600C002000200140D0
S315080097580100000F240C002080B58AB000AF304BFA
S31508009768304A1A602E4B08225A602D4B00229A60FE
S315080097782B4B0022DA602A4B4FF430221A61284B09
S315080097884FF480125A61264B00221A76244B00227F
S315080097985A76234B00229A76214B0022DA76204BFA
S315080097A800221A771E4B00225A771D4801F00CFB37
S315080097B80346002B01D000F0C1FA0E237B61002373
S315080097C8BB610123FB6100233B6000237B60002308
S315080097D8BB600023FB6000233B6101233B620E2329
S315080097E87B623B4619460E4801F0EAFB0346002B06
S315080097F801D000F0A3FA0A4801F0C2FC0346002B80
S3150800980801D000F09BFA0221054801F0E8FE03465C
S31508009818002B01D000F092FA00BF2837BD4680BD5C
S31508009828080D00200068004080B500AF124B134AA7
S315080098381A60114B124A5A600F4B00229A600E4B57
S315080098480022DA600C4B4FF480421A610A4B002258
S315080098585A61094B00229A61074B0022DA61064BC6
S3150800986800221A62044802F0E5FF0346002B01D0DD
S3150800987800F064FA00BF80BD300D00200054004097
S31508009888A086010080B500AF124B134A1A60114B27
S31508009898124A5A600F4B00229A600E4B0022DA6071
S315080098A80C4B4FF480421A610A4B00225A61094B45
S315080098B800229A61074B0022DA61064B00221A62D7
S315080098C8044802F0B7FF0346002B01D000F036FA29
S315080098D800BF80BD840D002000580040A086010006
S315080098E880B584B000AF324B324A1A60304B00223A
S315080098F85A602F4B7F229A602D4BFF22DA602C4B39
S3150800990800221A612A4B00225A61294B00229A61C1
S31508009918274804F083FC0346002B01D000F00EFA12
S315080099283B1D00221A605A609A6000233B6003F0C8
S3150800993815FF00211E4804F0DBFE03464AF65522A9
S31508009948934231D000233B7100237B710023BB71FE
S315080099580023BB600023FB603B1D012219461448FF
S3150800996804F0E6FC0346002B01D000F0E7F90623CD
S315080099783B7002237B700323BB702223FB701023E2
S315080099887B701523BB703B4601221946084804F02C
S3150800999885FD0346002B01D000F0D0F94AF655227A
S315080099A80021034804F08BFE00BF1037BD4680BD72
S315080099B8D80D00200028004080B500AF174B184A7C
S315080099C81A60164B4FF482725A60144B00229A603A
S315080099D8124B0022DA60114B00221A610F4B002243
S315080099E85A610E4B4FF400729A610C4B3022DA61B9
S315080099F80A4B00221A62094B00225A62074B0022B8
S31508009A089A62064B0A22DA62044804F088FE03467C
S31508009A18002B01D000F092F900BF80BDF80D002098
S31508009A280030014080B500AF174B184A1A60164B2C
S31508009A384FF482725A60144B00229A60124B002225
S31508009A48DA60114B00221A610F4B00225A610E4B3D
S31508009A584FF400729A610C4B0022DA610A4B002215
S31508009A681A62094B00225A62074B00229A62064B71
S31508009A780A22DA62044804F052FE0346002B01D093
S31508009A8800F05CF900BF80BD500E0020003C004085
S31508009A9880B586B000AF07F1080300221A605A603D
S31508009AA89A60DA603B4600221A605A60214B224ABD
S31508009AB81A60204B41F26F725A601E4B00229A6058
S31508009AC81C4B4FF47A72DA601A4B00221A61194B4A
S31508009AD800229A61174805F076FB0346002B01D049
S31508009AE800F02CF94FF48053BB6007F108031946B8
S31508009AF8104805F02DFD0346002B01D000F01EF98D
S31508009B0800233B6000237B603B461946094805F05D
S31508009B1845FF0346002B01D000F010F9054805F06B
S31508009B28A1FB0346002B01D000F008F900BF18373F
S31508009B38BD4680BDA80E00200004004080B500AFD1
S31508009B48114B124A1A60104B4FF4E1325A600E4B09
S31508009B5800229A600C4B0022DA600B4B00221A612D
S31508009B68094B0C225A61084B00229A61064B0022BF
S31508009B78DA61054805F09EFF0346002B01D000F080
S31508009B88DDF800BF80BD00BFF00E002000140140BC
S31508009B9880B582B000AF00237B600C4B1B6B0B4A69
S31508009BA843F480031363094B1B6B03F480037B6040
S31508009BB87B6800220021382002F031F8382002F0AC
S31508009BC84AF800BF0837BD4680BD00BF00380240C6
S31508009BD880B58AB000AF07F1140300221A605A60EC
S31508009BE89A60DA601A6100233B61354B1B6B344A6D
S31508009BF843F080031363324B1B6B03F080033B610E
S31508009C083B690023FB602E4B1B6B2D4A43F004036C
S31508009C1813632B4B1B6B03F00403FB60FB680023E1
S31508009C28BB60274B1B6B264A43F001031363244B7F
S31508009C381B6B03F00103BB60BB6800237B60204BEA
S31508009C481B6B1F4A43F0020313631D4B1B6B03F080
S31508009C5802037B607B68002248F61851194802F00F
S31508009C68B7FD01224FF48071174802F0B1FD0122B1
S31508009C784FF40071134802F0ABFD48F618737B6180
S31508009C880123BB610023FB6100233B6207F1140330
S31508009C9819460C4802F0FEFB4FF480737B610123DA
S31508009CA8BB610023FB6100233B6207F114031946D5
S31508009CB8054802F0EFFB00BF2837BD4680BD00BF48
S31508009CC800380240000002400008024080B586B00D
S31508009CD800AF7860164B01221A701C22002115481D
S31508009CE80BF0C6F907F10C03124A0021786801F04F
S31508009CF865FB0346002B12D100237B610CE007F1B4
S31508009D080C027B69134419780B4A7B6913440A4683
S31508009D181A707B6901337B617B69072BEFDD0221AA
S31508009D28786801F05CFC00BF1837BD4680BD00BFE7
S31508009D385C0C0020380C0020540C002080B500AFBD
S31508009D4872B600BFFFF7F6FBFCE7000080B483B0E5
S31508009D5800AF00237B600F4B5B6C0E4A43F48043CD
S31508009D6853640C4B5B6C03F480437B607B6800236D
S31508009D783B60084B1B6C074A43F080531364054B3A
S31508009D881B6C03F080533B603B6800BF0C37BD462D
S31508009D9880BC70470038024080B58AB000AF78604A
S31508009DA807F1140300221A605A609A60DA601A6189
S31508009DB87B681B683C4A934271D100233B613B4B45
S31508009DC85B6C3A4A43F480735364384B5B6C03F410
S31508009DD880733B613B690023FB60344B1B6B334A3A
S31508009DE843F004031363314B1B6B03F00403FB6056
S31508009DF8FB680023BB602D4B1B6B2C4A43F0010301
S31508009E0813632A4B1B6B03F00103BB60BB680F2364
S31508009E187B610323BB610023FB6107F11403194621
S31508009E28234802F037FB01237B610323BB61002328
S31508009E38FB6107F1140319461E4802F02BFB1E4B5B
S31508009E481E4A1A601C4B00225A601B4B00229A6055
S31508009E58194B0022DA60184B4FF480621A61164BC8
S31508009E684FF480525A61144B4FF480429A61124B50
S31508009E784FF48072DA61104B00221A620E4B0022E8
S31508009E885A620D4801F008FF0346002B01D0FFF778
S31508009E9855FF7B68084A9A63074A7B68936300BF3D
S31508009EA82837BD4680BD00BF002001400038024063
S31508009EB80008024000000240A80C00201064024076
S31508009EC880B58AB000AF786007F1140300221A60DB
S31508009ED85A609A60DA601A617B681B68244A93425A
S31508009EE842D100233B61234B1B6C224A43F0806313
S31508009EF81364204B1B6C03F080633B613B690023AA
S31508009F08FB601C4B1B6C1B4A43F000731364194B0C
S31508009F181B6C03F00073FB60FB680023BB60154BE2
S31508009F281B6B144A43F002031363124B1B6B03F0B3
S31508009F380203BB60BB684FF440537B610223BB61D5
S31508009F480023FB6103233B6209237B6207F11403A1
S31508009F581946094802F09EFA00220021402001F01D
S31508009F685EFE402001F077FE00BF2837BD4680BD5B
S31508009F7800680040003802400004024080B58CB0F2
S31508009F8800AF786007F11C0300221A605A609A60CD
S31508009F98DA601A617B681B68324A93422CD100231F
S31508009FA8BB61314B1B6B304A43F0020313632E4BDC
S31508009FB81B6B03F00203BB61BB69C023FB61122359
S31508009FC83B6200237B620323BB620423FB6207F11F
S31508009FD81C031946254802F05DFA00237B61224BCB
S31508009FE81B6C214A43F4001313641F4B1B6C03F4C0
S31508009FF800137B617B6931E07B681B681C4A9342C6
S3150800A0082CD100233B61184B1B6B174A43F00203FC
S3150800A0181363154B1B6B03F002033B613B694FF453
S3150800A0284063FB6112233B6201237B620323BB6205
S3150800A0380423FB6207F11C0319460C4802F02AFAA6
S3150800A0480023FB60084B1B6C074A43F48003136420
S3150800A058054B1B6C03F48003FB60FB6800BF3037B5
S3150800A068BD4680BD00540040003802400004024046
S3150800A0780058004080B483B000AF78607B681B68DE
S3150800A088054A934202D1054B01221A6000BF0C37D4
S3150800A098BD4680BC704700BF002800403C0E4742BA
S3150800A0A880B58CB000AF786007F11C0300221A60EF
S3150800A0B85A609A60DA601A617B681B68324A93426A
S3150800A0C82CD10023BB61314B5B6C304A43F4805377
S3150800A0D853642E4B5B6C03F48053BB61BB69002346
S3150800A0E87B612A4B1B6B294A43F001031363274BF1
S3150800A0F81B6B03F001037B617B69E023FB61022389
S3150800A1083B6200237B620323BB620523FB6207F1DC
S3150800A1181C0319461E4802F0BDF931E07B681B6826
S3150800A1281C4A93422CD100233B61184B1B6C174AD7
S3150800A13843F400431364154B1B6C03F400433B615B
S3150800A1483B690023FB60114B1B6B104A43F0040361
S3150800A15813630E4B1B6B03F00403FB60FB684FF499
S3150800A168E053FB6102233B6200237B620323BB6245
S3150800A1780623FB6207F11C031946074802F08AF909
S3150800A18800BF3037BD4680BD003001400038024068
S3150800A19800000240003C00400008024080B584B038
S3150800A1A800AF78607B681B680E4A934215D1002376
S3150800A1B8FB600D4B1B6C0C4A43F0020313640A4BF5
S3150800A1C81B6C03F00203FB60FB68002200211D20BC
S3150800A1D801F025FD1D2001F03EFD00BF1037BD46E4
S3150800A1E880BD00BF000400400038024080B58AB030
S3150800A1F800AF786007F1140300221A605A609A6063
S3150800A208DA601A617B681B681D4A934233D10023BA
S3150800A2183B611C4B5B6C1B4A43F020035364194B88
S3150800A2285B6C03F020033B613B690023FB60154B1D
S3150800A2381B6B144A43F004031363124B1B6B03F09E
S3150800A2480403FB60FB68C0237B610223BB61002310
S3150800A258FB6103233B6208237B6207F11403194653
S3150800A268094802F017F900220021472001F0D7FC17
S3150800A278472001F0F0FC00BF2837BD4680BD00BF67
S3150800A28800140140003802400008024080B400AFBC
S3150800A298FEE780B400AFFEE780B400AFFEE780B4FF
S3150800A2A800AFFEE780B400AFFEE780B400AF00BF9A
S3150800A2B8BD4680BC704780B400AF00BFBD4680BCB1
S3150800A2C8704780B400AF00BFBD4680BC704780B5F4
S3150800A2D800AF00F053F901F0D8FC00BF80BD0000BC
S3150800A2E880B500AF024805F02BF800BF80BD00BF57
S3150800A2F8A80E002080B500AF024801F065FE00BF31
S3150800A30880BD00BFA80C002080B500AF024801F048
S3150800A3188BF900BF80BD00BF080D002080B500AFCF
S3150800A328024805F0A7FC00BF80BD00BFF00E00205C
S3150800A33880B400AF01231846BD4680BC704780B577
S3150800A34882B000AF786039600AF01CFC0346162212
S3150800A3581A604FF0FF3318460837BD4680BD80B5EA
S3150800A36882B000AF78604FF0FF317868FFF7E7FFF3
S3150800A378FEE780B586B000AFF860B9607A6000235A
S3150800A3887B610AE0AFF300800146BB685A1CBA60D5
S3150800A398CAB21A707B6901337B617A697B689A420B
S3150800A3A8F0DB7B6818461837BD4680BD80B483B095
S3150800A3B800AF78604FF0FF3318460C37BD4680BCAF
S3150800A3C8704780B483B000AF786039603B684FF453
S3150800A3D800525A60002318460C37BD4680BC7047A1
S3150800A3E880B483B000AF7860012318460C37BD46A1
S3150800A3F880BC704780B485B000AFF860B9607A60F1
S3150800A408002318461437BD4680BC704780B586B009
S3150800A41800AF7860144A154BD31A7B617B693B6198
S3150800A428134B1B68002B02D1114B124A1A60104BAA
S3150800A4381A687B6813443A699A4207D20AF0A2FB5B
S3150800A44803460C221A604FF0FF3309E0084B1B68D5
S3150800A458FB60074B1A687B681344054A1360FB6858
S3150800A46818461837BD4680BD00C0002000100000F9
S3150800A478340F0020C016002080B400AF00BFBD46C8
S3150800A48880BC7047DFF834D00D480E490E4A0023C1
S3150800A49802E0D458C4500433C4188C42F9D30B4A82
S3150800A4A80B4C002301E013600432A242FBD3FFF7EA
S3150800A4B8E3FF0AF06DFBFFF73DF8704700C0002080
S3150800A4C800000020080C002008B60108080C002027
S3150800A4D8BC160020FEE7000080B500AF0E4B1B68CF
S3150800A4E80D4A43F4007313600B4B1B680A4A43F47E
S3150800A4F880631360084B1B68074A43F4807313602C
S3150800A508032001F081FB0F2000F008F8FFF71EFC76
S3150800A5180023184680BD00BF003C024080B582B0C3
S3150800A52800AF7860124B1A68124B1B7819464FF41D
S3150800A5387A73B3FBF1F3B2FBF3F3184601F099FB10
S3150800A5480346002B01D001230EE07B680F2B0AD89F
S3150800A558002279684FF0FF3001F061FB064A7B68F4
S3150800A5681360002300E0012318460837BD4680BD5E
S3150800A57800000020080000200400002080B400AF76
S3150800A588054B1B781A46054B1B681344034A136088
S3150800A59800BFBD4680BC704708000020380F002061
S3150800A5A880B400AF024B1B681846BD4680BC70478E
S3150800A5B8380F002080B584B000AF7860FFF7F0FF49
S3150800A5C8B8607B68FB60FB68B3F1FF3F05D00A4BB0
S3150800A5D81B781A46FB681344FB6000BFFFF7E0FFC9
S3150800A5E80246BB68D31AFA689A42F7D800BF00BF72
S3150800A5F81037BD4680BD00BF0800002080B584B06E
S3150800A60800AF78600023FB737B68002B01D1012318
S3150800A61833E07B681B6C002B09D17868FFF7BCFB15
S3150800A6287B6800225A647B68002283F83C207B6892
S3150800A6381B6C03F01003002B18D17B681B6C23F4E2
S3150800A648885323F0020343F002027B681A64786889
S3150800A65800F032FA7B6800225A647B681B6C23F088
S3150800A668030343F001027B681A6401E00123FB73C4
S3150800A6787B68002283F83C20FB7B18461037BD46CA
S3150800A68880BD000080B586B000AFF860B9607A6012
S3150800A69800237B61FB6893F83C30012B01D1022328
S3150800A6A8BCE0FB68012283F83C20FB681B689B68B2
S3150800A6B803F00103012B18D0FB681B689A68FB682E
S3150800A6C81B6842F001029A60564B1B68564AA2FB61
S3150800A6D803239A0C13465B0013447B6102E07B69EB
S3150800A6E8013B7B617B69002BF9D1FB681B689B687A
S3150800A6F803F00103012B40F08480FB681B6C23F4EC
S3150800A708E06323F0010343F48072FB681A64FB686C
S3150800A7181B685B6803F48063002B07D0FB681B6C17
S3150800A72823F4405343F48052FB681A64FB681B6C95
S3150800A73803F48053B3F5805F06D1FB685B6C23F09E
S3150800A7480602FB685A6402E0FB6800225A64FB6842
S3150800A758002283F83C20FB689B6B344ADA63FB6863
S3150800A7689B6B334A1A64FB689B6B324ADA64FB684C
S3150800A7781B686FF022021A60FB681B685A68FB6838
S3150800A7881B6842F080625A60FB681B689A68FB6817
S3150800A7981B6842F480729A60FB68986BFB681B68B2
S3150800A7A84C331946BA687B6801F024FB224B5B6870
S3150800A7B803F01F03002B0FD1FB681B689B6803F087
S3150800A7C84053002B29D1FB681B689A68FB681B68ED
S3150800A7D842F080429A6020E0FB681B68174A934259
S3150800A7E81BD1FB681B689B6803F04053002B14D1E8
S3150800A7F8FB681B689A68FB681B6842F080429A6087
S3150800A8080BE0FB681B6C43F01002FB681A64FB68D4
S3150800A8185B6C43F00102FB685A6400231846183734
S3150800A828BD4680BD0000002083DE1B43CDAC000872
S3150800A83887AD0008A3AD00080023014000200140A9
S3150800A84880B483B000AF786000BF0C37BD4680BCC3
S3150800A858704780B483B000AF786000BF0C37BD4638
S3150800A86880BC704780B483B000AF786000BF0C37EF
S3150800A878BD4680BC7047000080B485B000AF7860DC
S3150800A88839600023FB607B6893F83C30012B01D1C3
S3150800A898022303E17B68012283F83C203B681B6896
S3150800A8A8092B25D97B681B68D9683B681B689BB246
S3150800A8B81A4613465B0013441E3B072202FA03F3A3
S3150800A8C8DA437B681B680A40DA607B681B68D968C4
S3150800A8D83B689A683B681B689BB2184603465B0048
S3150800A8E803441E3B9A407B681B680A43DA6022E0E9
S3150800A8F87B681B6819693B681B689BB21A4613462E
S3150800A9085B001344072202FA03F3DA437B681B68E1
S3150800A9180A401A617B681B6819693B689A683B682C
S3150800A9281B689BB2184603465B0003449A407B683B
S3150800A9381B680A431A613B685B68062B24D87B6840
S3150800A9481B68596B3B685A6813469B001344053BBA
S3150800A9581F2202FA03F3DA437B681B680A405A6324
S3150800A9687B681B68596B3B681B689BB218463B6833
S3150800A9785A6813469B001344053B00FA03F27B68A2
S3150800A9881B680A435A634CE03B685B680C2B24D85F
S3150800A9987B681B68196B3B685A6813469B00134407
S3150800A9A8233B1F2202FA03F3DA437B681B680A4033
S3150800A9B81A637B681B68196B3B681B689BB2184649
S3150800A9C83B685A6813469B001344233B00FA03F274
S3150800A9D87B681B680A431A6323E07B681B68D96A85
S3150800A9E83B685A6813469B001344413B1F2202FAE8
S3150800A9F803F3DA437B681B680A40DA627B681B68DC
S3150800AA08D96A3B681B689BB218463B685A6813465E
S3150800AA189B001344413B00FA03F27B681B680A4310
S3150800AA28DA627B681B68204A934209D13B681B682F
S3150800AA38122B05D11D4B5B681C4A43F480035360EF
S3150800AA487B681B68184A934223D13B681B68102BFE
S3150800AA5803D03B681B68112B1BD1144B5B68134A40
S3150800AA6843F4000353603B681B68102B11D1104B45
S3150800AA781B68104AA2FB03239A0C13469B0013442F
S3150800AA885B00FB6002E0FB68013BFB60FB68002B90
S3150800AA98F9D17B68002283F83C200023184614372E
S3150800AAA8BD4680BC704700BF002001400023014016
S3150800AAB80000002083DE1B4380B485B000AF7860B1
S3150800AAC87E4B5B687D4A23F4403353607B4B5A6858
S3150800AAD87B685B68794913434B607B681B685A68CF
S3150800AAE87B681B6822F480725A607B681B68596801
S3150800AAF87B681B691A027B681B680A435A607B686D
S3150800AB081B685A687B681B6822F040725A607B6823
S3150800AB181B6859687B689A687B681B680A435A6089
S3150800AB287B681B689A687B681B6822F400629A60CF
S3150800AB387B681B6899687B68DA687B681B680A43C0
S3150800AB489A607B689B6A5E4A934222D07B681B6838
S3150800AB589A687B681B6822F070629A607B681B6833
S3150800AB6899687B689A6A7B681B680A439A607B6857
S3150800AB781B689A687B681B6822F040529A607B6853
S3150800AB881B6899687B68DA6A7B681B680A439A6057
S3150800AB980FE07B681B689A687B681B6822F07062FE
S3150800ABA89A607B681B689A687B681B6822F0405223
S3150800ABB89A607B681B689A687B681B6822F00202A1
S3150800ABC89A607B681B6899687B681B7E5A007B6855
S3150800ABD81B680A439A607B6893F82030002B27D0B5
S3150800ABE87B681B685A687B681B6842F400625A606F
S3150800ABF87B681B685A687B681B6822F460425A603F
S3150800AC087B685B6A013B4FF46042FA60FA6892FA1D
S3150800AC18A2F2BA60BA68B2FA82F2D2B203FA02F1BA
S3150800AC287B681B685A687B681B680A435A6007E092
S3150800AC387B681B685A687B681B6822F400625A603E
S3150800AC487B681B68DA6A7B681B6822F47002DA621A
S3150800AC587B681B68D96A7B68DB69013B1A057B68D0
S3150800AC681B680A43DA627B681B689A687B681B68F4
S3150800AC7822F400729A607B681B6899687B6893F867
S3150800AC8830305A027B681B680A439A607B681B68DF
S3150800AC989A687B681B6822F480629A607B681B68DE
S3150800ACA899687B685B699A027B681B680A439A609D
S3150800ACB800BF1437BD4680BC704700BF002301405B
S3150800ACC80100000F80B584B000AF78607B689B6B85
S3150800ACD8FB60FB681B6C03F05003002B3CD1FB6838
S3150800ACE81B6C43F40072FB681A64FB681B689B6854
S3150800ACF803F04053002B2BD1FB681B7E002B27D172
S3150800AD08FB681B68DB6A03F47003002B06D0FB6834
S3150800AD181B689B6803F48063002B19D1FB681B68C2
S3150800AD285A68FB681B6822F020025A60FB681B6C8D
S3150800AD3823F48072FB681A64FB681B6C03F480535F
S3150800AD48002B05D1FB681B6C43F00102FB681A64EB
S3150800AD58F868FFF775FD0EE0FB681B6C03F0100337
S3150800AD68002B03D0F868FFF77DFD04E0FB689B6BB2
S3150800AD78DB6C7868984700BF1037BD4680BD80B53C
S3150800AD8884B000AF78607B689B6BFB60F868FFF758
S3150800AD9860FD00BF1037BD4680BD80B584B000AFE2
S3150800ADA878607B689B6BFB60FB6840221A64FB68CB
S3150800ADB85B6C43F00402FB685A64F868FFF752FDB7
S3150800ADC800BF1037BD4680BD80B584B000AF786037
S3150800ADD87B68002B01D10123EDE07B6893F82030CE
S3150800ADE8DBB2002B02D17868FFF76AF87B681B6824
S3150800ADF81A687B681B6842F001021A60FFF7D0FBE5
S3150800AE08F86012E0FFF7CCFB0246FB68D31A0A2B58
S3150800AE180BD97B685B6A43F400327B685A627B68A5
S3150800AE28052283F820200123C5E07B681B685B6838
S3150800AE3803F00103002BE5D07B681B681A687B685A
S3150800AE481B6822F002021A60FFF7AAFBF86012E0F4
S3150800AE58FFF7A6FB0246FB68D31A0A2B0BD97B68B1
S3150800AE685B6A43F400327B685A627B68052283F87A
S3150800AE78202001239FE07B681B685B6803F00203B8
S3150800AE88002BE5D17B681B7E012B08D17B681B68E4
S3150800AE981A687B681B6842F080021A6007E07B68BC
S3150800AEA81B681A687B681B6822F080021A607B6830
S3150800AEB85B7E012B08D17B681B681A687B681B6850
S3150800AEC842F040021A6007E07B681B681A687B68CC
S3150800AED81B6822F040021A607B689B7E012B08D10A
S3150800AEE87B681B681A687B681B6842F020021A6030
S3150800AEF807E07B681B681A687B681B6822F02002D3
S3150800AF081A607B68DB7E012B08D17B681B681A6888
S3150800AF187B681B6822F010021A6007E07B681B68CA
S3150800AF281A687B681B6842F010021A607B681B7FE8
S3150800AF38012B08D17B681B681A687B681B6842F076
S3150800AF4808021A6007E07B681B681A687B681B6832
S3150800AF5822F008021A607B685B7F012B08D17B68A0
S3150800AF681B681A687B681B6842F004021A6007E0C7
S3150800AF787B681B681A687B681B6822F004021A60DB
S3150800AF887B689A687B68DB681A437B681B691A437F
S3150800AF987B685B6942EA03017B685B685A1E7B68C3
S3150800AFA81B680A43DA617B6800225A627B680122B9
S3150800AFB883F82020002318461037BD4680BD0000B8
S3150800AFC880B487B000AF786039607B681B687B619E
S3150800AFD87B6893F82030FB74FB7C012B03D0FB7C41
S3150800AFE8022B40F0BE80654B7B617B69D3F8003243
S3150800AFF843F001027B69C3F800227B69D3F8003263
S3150800B00823F47C527B69C3F800227B69D3F80022B3
S3150800B0183B685B6A1B021A437B69C3F800223B68D4
S3150800B0285B6903F01F03012202FA03F3FB607B69DD
S3150800B038D3F81C22FB68DB431A407B69C3F81C2239
S3150800B0483B68DB69002B23D17B69D3F80C22FB68A4
S3150800B058DB431A407B69C3F80C223B68DB68190492
S3150800B0683B685B689BB23A68526919437B69483200
S3150800B07843F832103B689B6819043B681B689AB208
S3150800B0883B685B690A4379694833DB000B445A60B5
S3150800B0983B68DB69012B22D17B69D3F80C22FB6854
S3150800B0A81A437B69C3F80C223B681B6819043B687A
S3150800B0B85B689BB23A68526919437B69483243F818
S3150800B0C832103B689B6819043B68DB689AB23B6890
S3150800B0D85B690A4379694833DB000B445A603B6865
S3150800B0E89B69002B09D17B69D3F80422FB68DB43EB
S3150800B0F81A407B69C3F8042207E07B69D3F804225F
S3150800B108FB681A437B69C3F804223B681B69002B52
S3150800B11809D17B69D3F81422FB68DB431A407B699B
S3150800B128C3F8142207E07B69D3F81422FB681A438C
S3150800B1387B69C3F814223B681B6A012B07D17B6914
S3150800B148D3F81C22FB681A437B69C3F81C227B695F
S3150800B158D3F8003223F001027B69C3F800220023E2
S3150800B16806E07B685B6A43F480227B685A6201239F
S3150800B17818461C37BD4680BC704700BF00640040AF
S3150800B18880B584B000AF78607B6893F82030DBB26E
S3150800B198012B2ED17B68022283F820207B681B6846
S3150800B1A81A687B681B6822F001021A60FFF7F8F92B
S3150800B1B8F86012E0FFF7F4F90246FB68D31A0A2B7F
S3150800B1C80BD97B685B6A43F400327B685A627B68F2
S3150800B1D8052283F82020012312E07B681B685B6838
S3150800B1E803F00103002BE5D17B6800225A6200238D
S3150800B1F806E07B685B6A43F400227B685A6201238F
S3150800B20818461037BD4680BD80B489B000AFF860CF
S3150800B218B9607A603B60FB6893F82030FB77FB6877
S3150800B2281B689B68BB61FB7F012B03D0FB7F022B46
S3150800B23840F0B880BB6903F08063002B0AD1BB696C
S3150800B24803F00063002B05D1BB6903F08053002B7C
S3150800B25800F0A080BB691B0E03F003037B617B69C2
S3150800B268022B07D9FB685B6A43F40002FB685A623B
S3150800B27801239EE001227B699A403B681A60BB68F5
S3150800B2889B68002B0DD1BB681B685A05BB68DB6831
S3150800B298F96809681A437B6918331B010B441A6055
S3150800B2A80FE0BB685B68DA00BB689B681A43BB6833
S3150800B2B8DB68F96809681A437B6918331B010B446C
S3150800B2C81A60FB681968BB681A697B6918331B0119
S3150800B2D80B4404331A60BB681B7D012B11D1FB682C
S3150800B2E81A687B6918331B01134404331B68FA6808
S3150800B2F8116843F480727B6918331B010B440433C5
S3150800B3081A607B6807331B781A067B6806331B782E
S3150800B3181B041A437B6805331B781B0213437A6898
S3150800B328043212781046FA68116843EA00027B6903
S3150800B3381B010B4403F5C6731A607B6803331B7835
S3150800B3481A067B6802331B781B041A437B68013389
S3150800B3581B781B0213437A6812781046FA68116834
S3150800B36843EA00027B691B010B4403F5C4731A60A0
S3150800B378FB681A687B6918331B0113441B68FA684B
S3150800B388116843F001027B6918331B010B441A60E4
S3150800B39800230EE0FB685B6A43F40012FB685A62F6
S3150800B3A8012306E0FB685B6A43F48022FB685A625D
S3150800B3B8012318462437BD4680BC704780B487B039
S3150800B3C800AFF860B9607A603B60FB6893F8203094
S3150800B3D8FB75FB7D012B03D0FB7D022B40F0F38028
S3150800B3E8BB68002B0ED1FB681B68DB6803F00303F8
S3150800B3F8002B16D1FB685B6A43F40012FB685A6295
S3150800B4080123E7E0FB681B681B6903F00303002BAD
S3150800B41807D1FB685B6A43F40012FB685A6201238A
S3150800B428D8E0FB681A68BB681B331B0113441B6802
S3150800B43803F004027B689A607B689B68002B0CD132
S3150800B448FB681A68BB681B331B0113441B685B0D32
S3150800B458C3F30A027B681A600BE0FB681A68BB68C4
S3150800B4681B331B0113441B68DB0823F060427B6807
S3150800B4785A60FB681A68BB681B331B0113441B68B0
S3150800B48803F002027B68DA60FB681A68BB681B333C
S3150800B4981B01134404331B6803F00F027B681A6107
S3150800B4A8FB681A68BB681B331B01134404331B6803
S3150800B4B81B0ADAB27B689A61FB681A68BB681B3391
S3150800B4C81B01134404331B681B0C9AB27B685A6128
S3150800B4D8FB681A68BB681B01134403F5DC731B6811
S3150800B4E8DAB23B681A70FB681A68BB681B01134412
S3150800B4F803F5DC731B681A0A3B680133D2B21A7063
S3150800B508FB681A68BB681B01134403F5DC731B68E0
S3150800B5181A0C3B680233D2B21A70FB681A68BB6801
S3150800B5281B01134403F5DC731B681A0E3B680333C7
S3150800B538D2B21A70FB681A68BB681B01134403F574
S3150800B548DE731A683B680433D2B21A70FB681A6845
S3150800B558BB681B01134403F5DE731B681A0A3B68AC
S3150800B5680533D2B21A70FB681A68BB681B01134404
S3150800B57803F5DE731B681A0C3B680633D2B21A70D9
S3150800B588FB681A68BB681B01134403F5DE731B685E
S3150800B5981A0E3B680733D2B21A70BB68002B08D15B
S3150800B5A8FB681B68DA68FB681B6842F02002DA60E9
S3150800B5B807E0FB681B681A69FB681B6842F02002EB
S3150800B5C81A61002306E0FB685B6A43F48022FB687D
S3150800B5D85A62012318461C37BD4680BC704780B49A
S3150800B5E885B000AF786039607B6893F82030FB73C4
S3150800B5F8FB7B012B02D0FB7B022B09D17B681B68DE
S3150800B60859697B681B683A680A435A61002306E049
S3150800B6187B685B6A43F480227B685A620123184672
S3150800B6281437BD4680BC704780B58AB000AF7860CD
S3150800B63800237B627B681B685B693B627B681B68C7
S3150800B6485B68FB617B681B689B68BB617B681B68DA
S3150800B658DB687B617B681B681B693B617B681B68C9
S3150800B6689B69FB603B6A03F00103002B7CD0BB692E
S3150800B67803F00103002B23D07B681B6801229A601C
S3150800B688BB6903F00203002B03D0786800F083F93E
S3150800B69816E0BB6903F00403002B04D07B6A43F465
S3150800B6A800637B620CE0BB6903F00803002B04D037
S3150800B6B87B6A43F480537B6202E0786800F086F977
S3150800B6C8BB6903F48073002B24D07B681B684FF48E
S3150800B6D880729A60BB6903F40073002B03D07868FC
S3150800B6E800F062F916E0BB6903F48063002B04D006
S3150800B6F87B6A43F400537B620CE0BB6903F400637E
S3150800B708002B04D07B6A43F480437B6202E07868A6
S3150800B71800F065F9BB6903F48033002B24D07B68F5
S3150800B7281B684FF480329A60BB6903F40033002B18
S3150800B73803D0786800F041F916E0BB6903F4802362
S3150800B748002B04D07B6A43F400437B620CE0BB6998
S3150800B75803F40023002B04D07B6A43F480337B620E
S3150800B76802E0786800F044F93B6A03F00803002B06
S3150800B7780CD07B6903F01003002B07D07B6A43F4CF
S3150800B78800737B627B681B681022DA603B6A03F0E9
S3150800B7980403002B0BD07B6903F00803002B06D0A3
S3150800B7A87B681B680822DA60786800F02AF93B6A21
S3150800B7B803F00203002B09D07B681B68DB6803F0DB
S3150800B7C80303002B02D07868FEF780FA3B6A03F079
S3150800B7D84003002B0CD03B6903F01003002B07D05D
S3150800B7E87B6A43F480637B627B681B6810221A6154
S3150800B7F83B6A03F02003002B0BD03B6903F00803D0
S3150800B808002B06D07B681B6808221A61786800F046
S3150800B8180AF93B6A03F01003002B09D07B681B68FA
S3150800B8281B6903F00303002B02D0786800F0F2F8CE
S3150800B8383B6A03F40033002B0BD0FB6903F01003B3
S3150800B848002B06D07B681B6810225A60786800F0BF
S3150800B858F3F83B6A03F48033002B0BD0FB6903F03B
S3150800B8680803002B06D07B681B6808225A6078688C
S3150800B87800F0EBF83B6A03F40043002B7BD0FB6926
S3150800B88803F00403002B72D03B6A03F48073002B81
S3150800B89808D0FB6803F00103002B03D07B6A43F04A
S3150800B8A801037B623B6A03F40073002B08D0FB682C
S3150800B8B803F00203002B03D07B6A43F002037B6282
S3150800B8C83B6A03F48063002B08D0FB6803F0040383
S3150800B8D8002B03D07B6A43F004037B623B6A03F4BC
S3150800B8E80063002B43D0FB6803F07003002B3ED09F
S3150800B8F8FB6803F07003602B2BD0602B2ED8502BD7
S3150800B90822D0502B2AD8402B19D0402B26D8302B9A
S3150800B91810D0302B22D8102B02D0202B05D01DE0B2
S3150800B9287B6A43F008037B6219E07B6A43F01003DD
S3150800B9387B6214E07B6A43F020037B620FE07B6A34
S3150800B94843F040037B620AE07B6A43F080037B622C
S3150800B95805E07B6A43F480737B6200E000BF7B687E
S3150800B9681B689A697B681B6822F070029A617B6873
S3150800B9781B6804225A607B6A002B08D07B685A6ABF
S3150800B9887B6A1A437B685A62786800F067F800BFD2
S3150800B9982837BD4680BD80B483B000AF786000BF45
S3150800B9A80C37BD4680BC704780B483B000AF78605A
S3150800B9B800BF0C37BD4680BC704780B483B000AF63
S3150800B9C8786000BF0C37BD4680BC704780B483B02A
S3150800B9D800AF786000BF0C37BD4680BC704780B49E
S3150800B9E883B000AF786000BF0C37BD4680BC70478F
S3150800B9F880B483B000AF786000BF0C37BD4680BC02
S3150800BA08704780B483B000AF786000BF0C37BD4676
S3150800BA1880BC704780B483B000AF786000BF0C372D
S3150800BA28BD4680BC704780B483B000AF786000BF5D
S3150800BA380C37BD4680BC704780B483B000AF7860C9
S3150800BA4800BF0C37BD4680BC704780B483B000AFD2
S3150800BA58786000BF0C37BD4680BC704780B483B099
S3150800BA6800AF786000BF0C37BD4680BC7047000041
S3150800BA7880B485B000AF78607B6803F00703FB6085
S3150800BA880C4BDB68BB60BA684FF6FF031340BB6014
S3150800BA98FB681A02BB68134343F0BF6343F40033D9
S3150800BAA8BB60044ABB68D36000BF1437BD4680BC78
S3150800BAB8704700BF00ED00E080B400AF044BDB68B8
S3150800BAC81B0A03F007031846BD4680BC704700BF2B
S3150800BAD800ED00E080B483B000AF0346FB7197F928
S3150800BAE80730002B0BDBFB7903F01F02064997F991
S3150800BAF807305B09012000FA02F241F8232000BF4B
S3150800BB080C37BD4680BC704700E100E080B483B0BE
S3150800BB1800AF03463960FB7197F90730002B0ADB3B
S3150800BB283B68DAB20C4997F907301201D2B20B44CE
S3150800BB3883F800230AE03B68DAB20849FB7903F080
S3150800BB480F03043B1201D2B20B441A7600BF0C3716
S3150800BB58BD4680BC704700BF00E100E000ED00E08C
S3150800BB6880B489B000AFF860B9607A60FB6803F002
S3150800BB780703FB61FB69C3F10703042B28BF0423EA
S3150800BB88BB61FB690433062B02D9FB69033B00E05A
S3150800BB9800237B614FF0FF32BB6902FA03F3DA43ED
S3150800BBA8BB681A407B699A404FF0FF317B6901FAF6
S3150800BBB803F3D9437B680B40134318462437BD461D
S3150800BBC880BC704780B582B000AF78607B68013B5F
S3150800BBD8B3F1807F01D301230FE00A4A7B68013B52
S3150800BBE853600F214FF0FF30FFF790FF054B0022F7
S3150800BBF89A60044B07221A60002318460837BD4680
S3150800BC0880BD00BF10E000E080B582B000AF786064
S3150800BC187868FFF72DFF00BF0837BD4680BD80B599
S3150800BC2886B000AF0346B9607A60FB7300237B6170
S3150800BC38FFF742FF78617A68B9687869FFF790FF75
S3150800BC48024697F90F3011461846FFF75FFF00BFFF
S3150800BC581837BD4680BD80B582B000AF0346FB7174
S3150800BC6897F907301846FFF735FF00BF0837BD466E
S3150800BC7880BD80B582B000AF78607868FFF7A2FF0C
S3150800BC88034618460837BD4680BD80B500AF06F09E
S3150800BC98B5FF00BF80BD000080B586B000AF7860EC
S3150800BCA800237B61FEF77CFC38617B68002B01D199
S3150800BCB8012399E07B68022283F835207B680022F5
S3150800BCC883F834207B681B681A687B681B6822F02F
S3150800BCD801021A600FE0FEF763FC02463B69D31AB5
S3150800BCE8052B08D97B6820225A657B68032283F8C6
S3150800BCF83520032378E07B681B681B6803F001037B
S3150800BD08002BE8D17B681B681B687B617A69384B0E
S3150800BD1813407B617B685A687B689B681A437B6813
S3150800BD28DB681A437B681B691A437B685B691A4395
S3150800BD387B689B691A437B68DB691A437B681B6ABD
S3150800BD4813437A6913437B617B685B6A042B07D1C3
S3150800BD587B68DA6A7B681B6B13437A6913437B61D2
S3150800BD687B681B687A691A607B681B685B697B61F4
S3150800BD787B6923F007037B617B685B6A7A691343EF
S3150800BD887B617B685B6A042B17D17B689B6A7A6937
S3150800BD9813437B617B68DB6A002B0ED0786800F05A
S3150800BDA8FFFA0346002B08D07B6840225A657B6851
S3150800BDB8012283F83520012316E07B681B687A6917
S3150800BDC85A61786800F0B8FA0346FB607B68DB6D51
S3150800BDD83F229A40FB689A607B6800225A657B680E
S3150800BDE8012283F83520002318461837BD4680BD3A
S3150800BDF83F8010F080B586B000AFF860B9607A6009
S3150800BE083B600023FB75FB689B6D3B61FB6893F8F9
S3150800BE183430012B01D1022340E0FB68012283F864
S3150800BE283420FB6893F83530DBB2012B2FD1FB6839
S3150800BE38022283F83520FB6800225A653B687A682F
S3150800BE48B968F86800F04AFAFB68DB6D3F229A4041
S3150800BE583B699A60FB681B681A68FB681B6842F0AE
S3150800BE6816021A60FB681B6C002B07D0FB681B6858
S3150800BE781A68FB681B6842F008021A60FB681B68A8
S3150800BE881A68FB681B6842F001021A6005E0FB683D
S3150800BE98002283F834200223FB75FB7D18461837E1
S3150800BEA8BD4680BD80B584B000AF78607B689B6D61
S3150800BEB8FB60FEF775FBB8607B6893F83530DBB234
S3150800BEC8022B08D07B6880225A657B68002283F893
S3150800BED83420012352E07B681B681A687B681B6854
S3150800BEE822F016021A607B681B685A697B681B6809
S3150800BEF822F080025A617B681B6C002B03D17B6891
S3150800BF089B6C002B07D07B681B681A687B681B68C4
S3150800BF1822F008021A607B681B681A687B681B6827
S3150800BF2822F001021A6013E0FEF73AFB0246BB68E4
S3150800BF38D31A052B0CD97B6820225A657B680322FD
S3150800BF4883F835207B68002283F83420032315E01C
S3150800BF587B681B681B6803F00103002BE4D17B6828
S3150800BF68DB6D3F229A40FB689A607B68012283F85A
S3150800BF7835207B68002283F83420002318461037BA
S3150800BF88BD4680BD80B483B000AF78607B6893F8FF
S3150800BF983530DBB2022B04D07B6880225A65012330
S3150800BFA80CE07B68052283F835207B681B681A68CD
S3150800BFB87B681B6822F001021A60002318460C37B2
S3150800BFC8BD4680BC7047000080B586B000AF786073
S3150800BFD80023BB608E4B1B688E4AA2FB03239B0A71
S3150800BFE87B617B689B6D3B613B691B68FB607B6873
S3150800BFF8DB6D08229A40FB681340002B1AD07B6831
S3150800C0081B681B6803F00403002B13D07B681B68A6
S3150800C0181A687B681B6822F004021A607B68DB6D65
S3150800C02808229A403B699A607B685B6D43F0010277
S3150800C0387B685A657B68DB6D01229A40FB6813406A
S3150800C048002B12D07B681B685B6903F08003002B02
S3150800C0580BD07B68DB6D01229A403B699A607B6846
S3150800C0685B6D43F002027B685A657B68DB6D0422C8
S3150800C0789A40FB681340002B12D07B681B681B6824
S3150800C08803F00203002B0BD07B68DB6D04229A4071
S3150800C0983B699A607B685B6D43F004027B685A6566
S3150800C0A87B68DB6D10229A40FB681340002B43D04F
S3150800C0B87B681B681B6803F00803002B3CD07B6869
S3150800C0C8DB6D10229A403B699A607B681B681B687F
S3150800C0D803F48023002B18D07B681B681B6803F4BD
S3150800C0E80023002B08D17B681B6C002B24D07B68A7
S3150800C0F81B6C786898471FE07B689B6C002B1BD0E5
S3150800C1087B689B6C7868984716E07B681B681B6891
S3150800C11803F48073002B07D17B681B681A687B6851
S3150800C1281B6822F008021A607B681B6C002B03D078
S3150800C1387B681B6C786898477B68DB6D20229A4079
S3150800C148FB681340002B00F08F807B681B681B6810
S3150800C15803F01003002B00F087807B68DB6D202234
S3150800C1689A403B699A607B6893F83530DBB2052BB1
S3150800C17836D17B681B681A687B681B6822F016022A
S3150800C1881A607B681B685A697B681B6822F08002FC
S3150800C1985A617B681B6C002B03D17B689B6C002B50
S3150800C1A807D07B681B681A687B681B6822F0080238
S3150800C1B81A607B68DB6D3F229A403B699A607B6808
S3150800C1C8012283F835207B68002283F834207B68AF
S3150800C1D81B6D002B7ED07B681B6D7868984779E0C5
S3150800C1E87B681B681B6803F48023002B1DD07B68BB
S3150800C1F81B681B6803F40023002B0DD17B685B6C56
S3150800C208002B31D07B685B6C786898472CE000BFB8
S3150800C21800000020B5814E1B7B68DB6B002B23D002
S3150800C2287B68DB6B786898471EE07B681B681B6829
S3150800C23803F48073002B0FD17B681B681A687B6828
S3150800C2481B6822F010021A607B68012283F83520E1
S3150800C2587B68002283F834207B68DB6B002B03D0CD
S3150800C2687B68DB6B786898477B685B6D002B32D0F8
S3150800C2787B685B6D03F00103002B22D07B680522DF
S3150800C28883F835207B681B681A687B681B6822F068
S3150800C29801021A60BB680133BB607A699A4207D300
S3150800C2A87B681B681B6803F00103002BF2D100E0CA
S3150800C2B800BF7B68012283F835207B68002283F853
S3150800C2C834207B68DB6C002B05D07B68DB6C7868D0
S3150800C2D8984700E000BF1837BD4680BD80B485B0D2
S3150800C2E800AFF860B9607A603B60FB681B681A683B
S3150800C2F8FB681B6822F480221A60FB681B683A6888
S3150800C3085A60FB689B68402B08D1FB681B687A68EB
S3150800C3189A60FB681B68BA68DA6007E0FB681B68FE
S3150800C328BA689A60FB681B687A68DA6000BF1437CF
S3150800C338BD4680BC7047000080B485B000AF786001
S3150800C3487B681B68DBB2103B134AA2FB03231B0955
S3150800C358FB60124AFB6813441B781A467B68DA6541
S3150800C368FB68032B09D97B681B6823F47F7323F0C2
S3150800C37803031A1D7B689A6507E07B681B6823F424
S3150800C3887F7323F003037A6893657B689B6D184669
S3150800C3981437BD4680BC7047ABAAAAAA34B20108AE
S3150800C3A880B485B000AF78600023FB737B689B6A0E
S3150800C3B8BB607B689B69002B1FD1BB68032B56D8CB
S3150800C3C801A252F823F000BFE1C30008F3C300082E
S3150800C3D8E1C3000877C400087B68DB6A03F080734A
S3150800C3E8002B46D00123FB7343E07B68DB6AB3F175
S3150800C3F8C07F40D10123FB733DE07B689B69B3F599
S3150800C408005F21D1BB68032B37D801A252F823F065
S3150800C41829C400082FC4000829C4000841C4000814
S3150800C4280123FB7330E07B68DB6A03F08073002B1B
S3150800C43825D00123FB7322E07B68DB6AB3F1C07F52
S3150800C4481FD10123FB731CE0BB68022B03D9BB6809
S3150800C458032B03D018E00123FB7315E07B68DB6A1E
S3150800C46803F08073002B0ED00123FB730BE000BF8B
S3150800C4780AE000BF08E000BF06E000BF04E000BF0E
S3150800C48802E000BF00E000BFFB7B18461437BD4634
S3150800C49880BC704780B487B000AF786039600023E5
S3150800C4A87B616FE13B681A6801217B6901FA03F32E
S3150800C4B81340FB60FB68002B00F061813B685B68F2
S3150800C4C803F00303012B05D03B685B6803F00303FD
S3150800C4D8022B30D17B689B683B617B695B00032232
S3150800C4E802FA03F3DB433A6913403B613B68DA68AF
S3150800C4F87B695B0002FA03F33A6913433B617B687D
S3150800C5083A699A607B685B683B6101227B6902FA33
S3150800C51803F3DB433A6913403B613B685B681B09D5
S3150800C52803F001027B6902FA03F33A6913433B6194
S3150800C5387B683A695A603B685B6803F00303032B18
S3150800C54817D07B68DB683B617B695B00032202FACC
S3150800C55803F3DB433A6913403B613B689A687B6996
S3150800C5685B0002FA03F33A6913433B617B683A694D
S3150800C578DA603B685B6803F00303022B23D17B6907
S3150800C588DA087B68083253F822303B617B6903F086
S3150800C59807039B000F2202FA03F3DB433A691340A9
S3150800C5A83B613B681A697B6903F007039B0002FA3B
S3150800C5B803F33A6913433B617B69DA087B680832F7
S3150800C5C8396943F822107B681B683B617B695B0005
S3150800C5D8032202FA03F3DB433A6913403B613B68DB
S3150800C5E85B6803F003027B695B0002FA03F33A69A6
S3150800C5F813433B617B683A691A603B685B6803F4D6
S3150800C6084033002B00F0BB800023BB60644B5B6C97
S3150800C618634A43F480435364614B5B6C03F4804379
S3150800C628BB60BB685F4A7B699B08023352F82330B4
S3150800C6383B617B6903F003039B000F2202FA03F3AD
S3150800C648DB433A6913403B617B68574A934231D0CA
S3150800C6587B68564A93422BD07B68554A934225D025
S3150800C6687B68544A93421FD07B68534A934219D031
S3150800C6787B68524A934213D07B68514A93420DD03D
S3150800C6887B68504A934207D07B684F4A934201D148
S3150800C698082310E009230EE007230CE006230AE026
S3150800C6A8052308E0042306E0032304E0022302E046
S3150800C6B8012300E000237A6902F0030292009340FE
S3150800C6C81A463B6913433B6136497B699B08023323
S3150800C6D83A6941F823203D4B1B683B61FB68DB43FD
S3150800C6E83A6913403B613B685B6803F48033002B67
S3150800C6F803D03A69FB6813433B61344A3B691360C4
S3150800C708324B5B683B61FB68DB433A6913403B6124
S3150800C7183B685B6803F40033002B03D03A69FB686F
S3150800C72813433B61294A3B695360284B9B683B6125
S3150800C738FB68DB433A6913403B613B685B6803F473
S3150800C7488013002B03D03A69FB6813433B611F4AE1
S3150800C7583B6993601D4BDB683B61FB68DB433A69C1
S3150800C76813403B613B685B6803F40013002B03D056
S3150800C7783A69FB6813433B61144A3B69D3607B6992
S3150800C78801337B613B681A687B6922FA03F3002B3D
S3150800C7987FF488AE00BF00BF1C37BD4680BC704713
S3150800C7A800380240003801400000024000040240F8
S3150800C7B800080240000C0240001002400014024023
S3150800C7C800180240001C024000200240003C0140BC
S3150800C7D880B483B000AF78600B467B8013467B70C5
S3150800C7E87B78002B03D07A887B689A6103E07B887C
S3150800C7F81A047B689A6100BF0C37BD4680BC70472F
S3150800C80880B485B000AF78600B467B807B685B692F
S3150800C818FB607A88FB6813401A04FB68D9437B884F
S3150800C8280B401A437B689A6100BF1437BD4680BC23
S3150800C8387047000080B584B000AF78607B68002B2D
S3150800C84801D101232BE17B6893F83D30DBB2002B3D
S3150800C85806D17B68002283F83C207868FDF78EFBB2
S3150800C8687B68242283F83D207B681B681A687B68E6
S3150800C8781B6822F001021A607B681B681A687B68C5
S3150800C8881B6842F400421A607B681B681A687B6852
S3150800C8981B6822F400421A6001F086FBF8607B6880
S3150800C8A85B68814A934207D8FB68804A934294BFDB
S3150800C8B801230023DBB206E0FB687D4A934294BF56
S3150800C8C801230023DBB2002B01D00123E7E0FB6834
S3150800C8D8784AA2FB03239B0CBB607B681B685B68D2
S3150800C8E823F03F017B681B68BA680A435A607B686D
S3150800C8F81B681B6A23F03F017B685B686A4A934298
S3150800C90802D8BB68013309E0BB684FF4967202FB8C
S3150800C91803F3694AA2FB03239B0901337A68126861
S3150800C9280B4313627B681B68DB6923F44F4222F0CA
S3150800C938FF027B685B685C498B4219D8FB68591EFD
S3150800C9487B685B685B00B1FBF3F3591C40F6FC7324
S3150800C9580B40002B0AD0FB68591E7B685B685B0096
S3150800C968B1FBF3F30133C3F30B0351E004234FE0A0
S3150800C9787B689B68002B11D1FB68581E7B68596831
S3150800C9880B465B000B44B0FBF3F30133C3F30B030D
S3150800C998002B0CBF01230023DBB212E0FB68581EEC
S3150800C9A87B6859680B469B000B4499000B44B0FBFF
S3150800C9B8F3F30133C3F30B03002B0CBF0123002346
S3150800C9C8DBB2002B01D0012322E07B689B68002B91
S3150800C9D80ED1FB68581E7B6859680B465B000B44EA
S3150800C9E8B0FBF3F30133C3F30B0343F400430FE03F
S3150800C9F8FB68581E7B6859680B469B000B449900D0
S3150800CA080B44B0FBF3F30133C3F30B0343F440437E
S3150800CA18796809681343CB617B681B681B6823F030
S3150800CA28C0017B68DA697B681B6A1A437B681B68DE
S3150800CA380A431A607B681B689B6823F4034323F040
S3150800CA48FF037A6811697A68D26811437A681268A6
S3150800CA580B4393607B681B68DB6823F0FF017B68E0
S3150800CA685A697B689B691A437B681B680A43DA60BC
S3150800CA787B681B681A687B681B6842F001021A60A3
S3150800CA887B6800221A647B68202283F83D207B682D
S3150800CA9800221A637B68002283F83E200023184682
S3150800CAA81037BD4680BD00BFA08601007F841E00E2
S3150800CAB8FF083D0083DE1B43D34D621080B588B05E
S3150800CAC802AFF8607A601A460B467B8113463B81AB
S3150800CAD8FDF766FD7861FB6893F83D30DBB2202BDD
S3150800CAE840F0E0807B690093192301227049F868B1
S3150800CAF800F058FC0346002B01D00223D3E0FB685C
S3150800CB0893F83C30012B01D10223CCE0FB680122C3
S3150800CB1883F83C20FB681B681B6803F00103012B9C
S3150800CB2807D0FB681B681A68FB681B6842F0010295
S3150800CB381A60FB681B681A68FB681B6822F400629F
S3150800CB481A60FB68212283F83D20FB68102283F8C7
S3150800CB583E20FB6800221A64FB687A685A62FB68FA
S3150800CB683A895A85FB685B8D9AB2FB681A85FB6811
S3150800CB78504ADA6279897B693A6AF86800F0C2FA33
S3150800CB880346002B01D001238DE000233B61FB6897
S3150800CB981B685B693B61FB681B689B693B613B6972
S3150800CBA866E07A69396AF86800F0D2FC0346002B11
S3150800CBB80DD0FB681B6C042B07D1FB681B681A6829
S3150800CBC8FB681B6842F400721A6001236BE0FB6875
S3150800CBD85B6A1A78FB681B681A61FB685B6A5A1CE9
S3150800CBE8FB685A62FB685B8D9BB2013B9AB2FB688D
S3150800CBF85A85FB681B8D013B9AB2FB681A85FB6848
S3150800CC081B685B6903F00403042B1BD1FB681B8DA7
S3150800CC18002B17D0FB685B6A1A78FB681B681A61D1
S3150800CC28FB685B6A5A1CFB685A62FB685B8D9BB299
S3150800CC38013B9AB2FB685A85FB681B8D013B9AB281
S3150800CC48FB681A857A69396AF86800F0C2FC0346EF
S3150800CC58002B0DD0FB681B6C042B07D1FB681B68DF
S3150800CC681A68FB681B6842F400721A6001231AE006
S3150800CC78FB681B8D002B94D1FB681B681A68FB6838
S3150800CC881B6842F400721A60FB68202283F83D206C
S3150800CC98FB68002283F83E20FB68002283F83C20C4
S3150800CCA8002300E0022318461837BD4680BD00BF9A
S3150800CCB8020010000000FFFF80B58CB002AFF860D4
S3150800CCC87A601A460B467B8113463B81FDF768FC5A
S3150800CCD87862FB6893F83D30DBB2202B40F00B8274
S3150800CCE87B6A0093192301227C49F86800F05AFBED
S3150800CCF80346002B01D00223FEE1FB6893F83C307B
S3150800CD08012B01D10223F7E1FB68012283F83C20B5
S3150800CD18FB681B681B6803F00103012B07D0FB6837
S3150800CD281B681A68FB681B6842F001021A60FB68F0
S3150800CD381B681A68FB681B6822F400621A60FB689D
S3150800CD48222283F83D20FB68102283F83E20FB68E0
S3150800CD5800221A64FB687A685A62FB683A895A8517
S3150800CD68FB685B8D9AB2FB681A85FB685C4ADA62CF
S3150800CD7879897B6A3A6BF86800F046FA0346002B0D
S3150800CD8801D00123B8E1FB681B8D002B13D10023C2
S3150800CD983B62FB681B685B693B62FB681B689B69AF
S3150800CDA83B623B6AFB681B681A68FB681B6842F4A7
S3150800CDB800721A608CE1FB681B8D012B1BD1FB687E
S3150800CDC81B681A68FB681B6822F480621A600023CD
S3150800CDD8FB61FB681B685B69FB61FB681B689B69F1
S3150800CDE8FB61FB69FB681B681A68FB681B6842F4E9
S3150800CDF800721A606CE1FB681B8D022B1BD1FB685D
S3150800CE081B681A68FB681B6822F480621A60FB684C
S3150800CE181B681A68FB681B6842F400621A600023DC
S3150800CE28BB61FB681B685B69BB61FB681B689B6920
S3150800CE38BB61BB694CE1FB681B681A68FB681B6821
S3150800CE4842F480621A6000237B61FB681B685B6991
S3150800CE587B61FB681B689B697B617B6938E1FB68BA
S3150800CE681B8D032B00F2F180FB681B8D012B23D148
S3150800CE787A6A396BF86800F0EDFB0346002B01D097
S3150800CE88012339E1FB681B681A69FB685B6AD2B239
S3150800CE981A70FB685B6A5A1CFB685A62FB681B8D2A
S3150800CEA8013B9AB2FB681A85FB685B8D9BB2013B0E
S3150800CEB89AB2FB685A850BE1FB681B8D022B4ED18B
S3150800CEC87B6A00933B6B00220649F86800F06AFA09
S3150800CED80346002B08D001230EE100BF020010000C
S3150800CEE80000FFFF04000100FB681B681A68FB685E
S3150800CEF81B6842F400721A60FB681B681A69FB68AB
S3150800CF085B6AD2B21A70FB685B6A5A1CFB685A627B
S3150800CF18FB681B8D013B9AB2FB681A85FB685B8D1B
S3150800CF289BB2013B9AB2FB685A85FB681B681A696B
S3150800CF38FB685B6AD2B21A70FB685B6A5A1CFB68A4
S3150800CF485A62FB681B8D013B9AB2FB681A85FB6817
S3150800CF585B8D9BB2013B9AB2FB685A85B8E07B6A3F
S3150800CF6800933B6B00226649F86800F01BFA0346F3
S3150800CF78002B01D00123BFE0FB681B681A68FB6811
S3150800CF881B6822F480621A60FB681B681A69FB68CA
S3150800CF985B6AD2B21A70FB685B6A5A1CFB685A62EB
S3150800CFA8FB681B8D013B9AB2FB681A85FB685B8D8B
S3150800CFB89BB2013B9AB2FB685A857B6A00933B6B26
S3150800CFC800224F49F86800F0EDF90346002B01D016
S3150800CFD8012391E0FB681B681A68FB681B6842F422
S3150800CFE800721A60FB681B681A69FB685B6AD2B22A
S3150800CFF81A70FB685B6A5A1CFB685A62FB681B8DC9
S3150800D008013B9AB2FB681A85FB685B8D9BB2013BAC
S3150800D0189AB2FB685A85FB681B681A69FB685B6ADB
S3150800D028D2B21A70FB685B6A5A1CFB685A62FB68BC
S3150800D0381B8D013B9AB2FB681A85FB685B8D9BB210
S3150800D048013B9AB2FB685A8542E07A6A396BF868F6
S3150800D05800F000FB0346002B01D001234CE0FB68D7
S3150800D0681B681A69FB685B6AD2B21A70FB685B6A46
S3150800D0785A1CFB685A62FB681B8D013B9AB2FB680F
S3150800D0881A85FB685B8D9BB2013B9AB2FB685A8589
S3150800D098FB681B685B6903F00403042B18D1FB685B
S3150800D0A81B681A69FB685B6AD2B21A70FB685B6A06
S3150800D0B85A1CFB685A62FB681B8D013B9AB2FB68CF
S3150800D0C81A85FB685B8D9BB2013B9AB2FB685A8549
S3150800D0D8FB681B8D002B7FF4C2AEFB68202283F801
S3150800D0E83D20FB68002283F83E20FB68002283F86F
S3150800D0F83C20002300E0022318462837BD4680BD99
S3150800D1080400010080B588B002AFF8607A603B6019
S3150800D1180B467B81FB68DB6A7B617B69082B06D03B
S3150800D1287B69012B03D07B6913F5803F08D1FB681F
S3150800D1381B681A68FB681B6842F480721A600BE061
S3150800D148FB681B6B122B07D1FB681B681A68FB6800
S3150800D1581B6842F480721A603B6800937B68002259
S3150800D1684FF00111F86800F01DF90346002B0DD0A1
S3150800D178FB681B681B6803F48073B3F5807F03D1CB
S3150800D188FB684FF400721A64032335E0FB681B69D1
S3150800D198B3F5804F08D17B89DBB21A46FB681B6852
S3150800D1A802F0FE021A611BE07B89DB11DBB203F091
S3150800D1B80603DBB263F00F03DAB2FB681B681A6171
S3150800D1C83B687A680E49F86800F043F90346002B6D
S3150800D1D801D0012310E07B89DAB2FB681B681A6163
S3150800D1E83B687A680749F86800F033F90346002B64
S3150800D1F801D0012300E0002318461837BD4680BD34
S3150800D208080001000200010080B588B002AFF86086
S3150800D2187A603B600B467B81FB68DB6A7B61FB684F
S3150800D2281B681A68FB681B6842F480621A607B6987
S3150800D238082B06D07B69012B03D07B6913F5803F41
S3150800D24808D1FB681B681A68FB681B6842F4807279
S3150800D2581A600BE0FB681B6B112B07D1FB681B6870
S3150800D2681A68FB681B6842F480721A603B68009368
S3150800D2787B6800224FF00111F86800F093F803461E
S3150800D288002B0DD0FB681B681B6803F48073B3F585
S3150800D298807F03D1FB684FF400721A64032379E090
S3150800D2A8FB681B69B3F5804F08D17B89DBB243F06D
S3150800D2B80103DAB2FB681B681A615FE07B89DB1138
S3150800D2C8DBB203F00603DBB263F00F03DAB2FB68DE
S3150800D2D81B681A613B687A683049F86800F0B9F83B
S3150800D2E80346002B01D0012354E07B89DAB2FB6898
S3150800D2F81B681A613B687A682949F86800F0A9F832
S3150800D3080346002B01D0012344E000233B61FB6858
S3150800D3181B685B693B61FB681B689B693B613B69EA
S3150800D328FB681B681A68FB681B6842F480721A60F7
S3150800D3383B6800937B6800224FF00111F86800F0FB
S3150800D34831F80346002B0DD0FB681B681B6803F4ED
S3150800D3588073B3F5807F03D1FB684FF400721A64B3
S3150800D368032317E07B89DB11DBB203F00603DBB284
S3150800D37863F00E03DAB2FB681B681A613B687A68C1
S3150800D3880749F86800F065F80346002B01D0012321
S3150800D39800E0002318461837BD4680BD080001007E
S3150800D3A80200010080B584B000AFF860B9603B6040
S3150800D3B81346FB7125E03B68B3F1FF3F21D0FDF723
S3150800D3C8EFF80246BB69D31A3A689A4202D33B6811
S3150800D3D8002B16D1FB6800221A63FB68202283F803
S3150800D3E83D20FB68002283F83E20FB681B6C43F04F
S3150800D3F82002FB681A64FB68002283F83C20012394
S3150800D40823E0BB681B0CDBB2012B0DD1FB681B683C
S3150800D4185B69DA43BB6813409BB2002B0CBF012338
S3150800D4280023DBB21A460CE0FB681B689B69DA43E3
S3150800D438BB6813409BB2002B0CBF01230023DBB249
S3150800D4481A46FB799A42B6D0002318461037BD46C5
S3150800D45880BD80B584B000AFF860B9607A603B607B
S3150800D46851E0FB681B685B6903F48063B3F5806F5A
S3150800D47823D1FB681B681A68FB681B6842F40072AC
S3150800D4881A60FB681B686FF480625A61FB680022A1
S3150800D4981A63FB68202283F83D20FB68002283F87C
S3150800D4A83E20FB681B6C43F00402FB681A64FB68A1
S3150800D4B8002283F83C20012346E07B68B3F1FF3F4E
S3150800D4C821D0FDF76DF802463B68D31A7A689A4266
S3150800D4D802D37B68002B16D1FB6800221A63FB6807
S3150800D4E8202283F83D20FB68002283F83E20FB684B
S3150800D4F81B6C43F02002FB681A64FB68002283F859
