S01900006F70656E626C745F73746D3332663230352E7372656302
S31508000000880D0020852A0008CD2A0008D12A000874
S31508000010D52A0008D92A0008DD2A000800000000B1
S31508000020000000000000000000000000E12A0008AF
S31508000030E52A000800000000E92A0008CD0F00089C
S31508000040ED2A0008F12A0008F52A0008F92A00080E
S31508000050FD2A0008012B0008052B0008092B0008BB
S315080000600D2B0008112B0008152B0008192B00086A
S315080000701D2B0008212B0008252B0008292B00081A
S315080000802D2B0008312B0008352B0008392B0008CA
S315080000903D2B0008412B0008452B0008492B00087A
S315080000A04D2B0008512B0008552B0008592B00082A
S315080000B05D2B0008612B0008652B0008692B0008DA
S315080000C06D2B0008712B0008752B0008792B00088A
S315080000D07D2B0008812B0008852B0008892B00083A
S315080000E08D2B0008912B0008952B0008992B0008EA
S315080000F09D2B0008A12B0008A52B0008A92B00089A
S31508000100AD2B0008B12B0008B52B0008B92B000849
S31508000110BD2B0008C12B0008C52B0008C92B0008F9
S31508000120CD2B0008D12B0008D52B0008D92B0008A9
S31508000130DD2B0008E12B0008E52B0008E92B000859
S31508000140ED2B0008F12B0008F52B0008F92B000809
S31508000150FD2B0008012C0008052C0008092C0008B6
S315080001600D2C0008112C0008152C0008192C000865
S315080001701D2C0008212C0008252C0008292C000815
S315080001802D2C000838B50400002C01D10120AEE062
S3150800019094F82000002802D1200000F0B4FA206864
S315080001A0006830F002002168086000F0E1FA0500F6
S315080001B02068406880070DD500F0DAFA401B0B2846
S315080001C0F6D3606A50F400306062052084F8200097
S315080001D001208CE02068006850F001002168086062
S315080001E000F0C6FA050020684068C0070DD400F084
S315080001F0BFFA401B0B28F6D3606A50F400306062E1
S31508000200052084F82000012071E0207E012806D10F
S315080002102068006850F080002168086005E02068C2
S31508000220006830F0800021680860607E012806D1E9
S315080002302068006850F040002168086005E02068E2
S31508000240006830F0400021680860A07E012806D1C9
S315080002502068006850F020002168086005E02068E2
S31508000260006830F0200021680860E07E012806D189
S315080002702068006830F010002168086005E02068F2
S31508000280006850F0100021680860207F012806D118
S315080002902068006850F008002168086005E02068BA
S315080002A0006830F0080021680860607F012806D1E0
S315080002B02068006850F004002168086005E020689E
S315080002C0006830F0040021680860A168E06801430E
S315080002D020690143606901436068401E0143206844
S315080002E0C16100206062012084F82000002032BD30
S315080002F030B4026890F820201300DBB2012B03D03B
S31508000300D2B2022A40F082805B4AD2F8000250F04C
S315080003100100C2F80002D2F8000230F47C50C2F89C
S315080003200002D2F800024B6A50EA0320C2F8000223
S315080003300123087D10F01F008340D2F81C02984361
S31508000340C2F81C02C869002818D1D2F80C029843D2
S31508000350C2F80C02486902EBC000CC684D68ADB221
S3150800036055EA0445C0F84052486902EBC0008C685B
S315080003700D68ADB255EA0445C0F84452C86901286B
S3150800038018D1D2F80C021843C2F80C02486902EBDD
S31508000390C0000C684D68ADB255EA0445C0F8405235
S315080003A0486902EBC0008C68CD68ADB255EA0445D1
S315080003B0C0F844528869002805D1D2F80402984347
S315080003C0C2F8040204E0D2F804021843C2F8040290
S315080003D00869002805D1D2F814029843C2F8140215
S315080003E004E0D2F814021843C2F81402086A012875
S315080003F004D1D2F81C020343C2F81C32D2F8000218
S3150800040040084000C2F80002002004E0416A51F4A6
S3150800041080214162012030BC704738B5040094F849
S315080004202000012821D1022084F8200020680068D5
S31508000430400840002168086000F09AF90500206825
S315080004404068C0070DD500F093F9401B0B28F6D37A
S31508000450606A50F400306062052084F820000120AC
S3150800046008E000206062002004E0606A50F4002082
S315080004706062012032BD00000064004070B490F84C
S3150800048020500468A6688C68002CFFD02C00E4B2C3
S31508000490012C02D0EDB2022D6ED116F0E05F65D0C8
S315080004A0C6F30164032C05D3416A51F40001416285
S315080004B0012066E00125A5401D608B68002B09D147
S315080004C00B68CD6855EA4355036826013344C3F8DB
S315080004D080510AE04B688D6855EAC305CB681D4311
S315080004E0036826013344C3F880510B690568260161
S315080004F03544C5F88431097D01290BD101682301EA
S315080005001944D1F8841151F48071036825012B44EC
S31508000510C3F88411D17993791B0453EA016351799D
S3150800052053EA012311790B43016825012944C1F8CF
S315080005308C31D17893781B0453EA0163517853EAD6
S31508000540012311780B43016822011144C1F888314F
S31508000550016822011144D1F8801151F001010068A7
S3150800056024012044C0F8801100200AE0416A51F4B1
S3150800057000114162012004E0416A51F48021416280
S31508000580012070BC704710B40200002092F8203099
S315080005901C00E4B2012C02D0DBB2022B07D1126890
S315080005A0926812EA8162B2EB816F00D0012010BC1A
S315080005B0704730B490F820402500EDB2012D03D0E5
S315080005C0E4B2022C40F0988000290AD10468E46855
S315080005D014F0030F10D1416A51F400114162012051
S315080005E08FE00468246914F0030F05D1416A51F4B9
S315080005F000114162012084E004680D012C44D4F8FE
S31508000600B04114F0040494609468002C07D104687F
S315080006100D012C44D4F8B041640D146006E004685A
S315080006200D012C44D4F8B041E408546004680D0167
S315080006302C44D4F8B04114F00204D46004680D01C7
S315080006402C44D4F8B44114F00F04146104680D0165
S315080006502C44D4F8B441C4F30724946104680D010A
S315080006602C44D4F8B441240C546102680C01224489
S31508000670D2F8B8211A7002680C012244D2F8B821BF
S31508000680120A5A7002680C012244D2F8B821120CD8
S315080006909A7002680C012244D2F8B821120EDA7058
S315080006A002680C012244D2F8BC211A7102680C01B6
S315080006B02244D2F8BC21120A5A7102680C0122445B
S315080006C0D2F8BC21120C9A7102680C012244D2F8A5
S315080006D0BC21120EDA71002906D10168C96851F0E9
S315080006E020010068C16005E00168096951F0200130
S315080006F000680161002004E0416A51F480214162EA
S31508000700012030BC7047704780B500F00DF81348DB
S31508000710134908600020134908600520124908603B
S3150800072000201249086001BD00200F49086000201A
S315080007300B49086000200B49086070470A480068A2
S31508000740C00303D509480168491C0160704780B594
S31508000750FFF7F4FF0548006802BD0000BFD401009A
S3150800076014E000E018E000E010E000E07C0500205E
S3150800077080B5FFF7ECFF02BD5FF0FF30DFF86C14C1
S315080007800860DFF86C1408607047F8B504000D00BF
S315080007901600DFF86074796AB86A4118491E091BA1
S315080007A0681E814201D2002020E0200000F0F4F902
S315080007B0FF2805D02819401E00F0EEF9FF2801D1C0
S315080007C0002013E0600A40023968884207D12B00EE
S315080007D032002100DFF8180400F0E9F806E02B00E3
S315080007E032002100DFF8040400F0E1F8F2BD70B52C
S315080007F004000D00DFF8FC03416A806A4118491EAF
S31508000800091B681E814201D2002018E0200000F072
S31508000810C3F906002C19641E200000F0BDF931004A
S31508000820C9B2FF2903D00100C9B2FF2901D10020AE
S3150800083005E00100C9B23000C0B200F066F970BD2B
S3150800084080B500200090DFF8A813086810F1010FA2
S3150800085001D101202AE0009A486882180092009A7D
S31508000860886882180092009AC86882180092009ACE
S31508000870086982180092009A486982180092009ABC
S31508000880886982180092009AC869821800920098AE
S31508000890C04300900098401C00906A460421DFF887
S315080008A05403006810F5C270FFF76FFF02BD10B55C
S315080008B00024DFF840130868006804190868001D5A
S315080008C000680419086808300068041908680C30BC
S315080008D0006804190868103000680419086814309C
S315080008E0006804190868183000680419086810F5C3
S315080008F0C27000680419C04800F025FA002C04D11B
S31508000900BE4800F020FA012003E0BD4800F01BFABB
S31508000910002010BD80B5B648016811F1010F05D059
S3150800092000F08EF8002801D100200BE0AF480168DE
S3150800093011F1010F05D000F083F8002801D100203D
S3150800094000E0012002BDAB480068704780B5CA05C3
S3150800095001D000200BE002688A4201D1012006E09E
S3150800096001604FF40072001D00F082FB012002BDF9
S3150800097038B504000D009E48844208D19B4C2900D6
S315080009802000FFF7E3FF00280FD100200EE0994969
S315080009900A68954202D104000D68F0E7200000F0CD
S315080009A04FF80028EBD1002000E0200032BD2DE9E9
S315080009B0F0410400884616001D005FEA58277F02AA
S315080009C0206810F1010F07D139002000FFF7BEFF9C
S315080009D0002801D1002031E02068B84208D039004B
S315080009E02000FFF7C5FF0400002C01D1002025E0F8
S315080009F02068B8EB000804EB080010F1040800F0C2
S31508000A004CFB201DB8EB0000B0F5007F09D317F5A5
S31508000A1000712000FFF7ACFF0400002C0BD014F186
S31508000A200408307888F8000018F10108761C6D1E55
S31508000A30002DE4D101E0002000E00120BDE8F081AE
S31508000A402DE9F0410500012600F06CFB002704E0C3
S31508000A50D8F80000A04215D17F1C802F13D2D5F8F4
S31508000A60008018EB870805EB8700446800F015FB43
S31508000A70220000234146022000F014FB0028E7D09C
S31508000A80002600E0002600F05DFB3000C0B2BDE89D
S31508000A90F081F8B50024002100E0491C0A00D2B212
S31508000AA0042A2FD20C22534B0D00EDB255431D4498
S31508000AB02D7A0600F6B2B542EFD10800C0B250430F
S31508000AC01D58C9B2514303EB0100466815F0030FE0
S31508000AD002D116F0030F04D040F2BA21494800F0BB
S31508000AE0E1FB0124002701E02D1D7F1CB7EB960FC3
S31508000AF008D2380601D100F0D0FA286810F1010FA3
S31508000B00F2D000242000C0B2F2BD70B586B0040051
S31508000B100D0001260020009028002100C0B2C9B2AD
S31508000B20884200D2002633482100027AC9B291428F
S31508000B3005D390F82C002900C9B2884200D20026B5
S31508000B403000C0B2012823D1002001900220059070
S31508000B500120049000F0E6FA00E0641C2800210059
S31508000B60C0B2C9B2884211D32000C0B2FFF791FFC4
S31508000B700028F2D100F091FA2000C0B2039069462D
S31508000B8001A800F093FB0028E7D0002600F0DAFA67
S31508000B903000C0B206B070BD70B50400FF2500264F
S31508000BA000E0761C3000C0B204281AD200F075FAAC
S31508000BB00C21104A3000C0B2484310588442F0D382
S31508000BC03000C0B2484313583000C0B248431044FE
S31508000BD04068C3189C42E4D2F6B24E4302EB0600C4
S31508000BE0057A2800C0B270BD000000000C00002085
S31508000BF010020020EC270008102A0008AC2A00087A
S31508000C00B42A000888270008DFF87803016851F439
S31508000C10803101607047DB480068400C10F0010025
S31508000C207047D9490A6892089200104308607047CD
S31508000C30D548006810F00C007047D3490A6832F0AE
S31508000C40F002104308607047CF490A6832F4E05250
S31508000C50104308607047CC490A6832F46042104372
S31508000C6008607047C748016851F080710160704795
S31508000C70C4480068400E10F00100704770B4C34DB8
S31508000C802E68C34C26403043084350EA8210184366
S31508000C90286070BC704781B0BE490A6802430A6082
S31508000CA0096808400090009801B07047B9490A6879
S31508000CB032EA00000860704781B0B7490A68024303
S31508000CC00A60096808400090009801B07047B24968
S31508000CD00A6832EA00000860704781B0AF490A68BE
S31508000CE002430A60096808400090009801B07047FE
S31508000CF0AA490A6832EA000008607047A8490A68E3
S31508000D0012091201104308607047A548006810F0E0
S31508000D100F0070478161704709048161704780B58B
S31508000D2097A000F010F89F4800F00DF89E4800F0D4
S31508000D300AF89E4800F007F89D4800F004F89D4818
S31508000D4000F001F801BD38B504004FF480719A48E7
S31508000D50FFF7E2FF012000F06BFB002503E0605D72
S31508000D6000F0B6FB6D1C642D02DA605D0028F6D132
S31508000D7031BD80B500F007F800F0C9FBFFF7CFFFDB
S31508000D8000F0D3FBFCE780B500F0DAFB00F001F8D1
S31508000D9001BD80B50320FFF7B1FFFFF7B6FF0328B3
S31508000DA003D0A821854800F07DFAFFF72DFFFFF74D
S31508000DB032FF0128FBD10023C02214215FF48000F2
S31508000DC0FFF75CFFFFF74EFFFFF752FF0128FBD145
S31508000DD00020FFF732FF4FF4A050FFF735FF4FF41E
S31508000DE00040FFF738FF0220FFF71BFFFFF720FF41
S31508000DF00828FBD1724800F0E3FB01BD80B54FF42B
S31508000E008040FFF76AFF0120FFF745FF0220FFF742
S31508000E1042FF0420FFF73FFF00F005F800F022F834
S31508000E2000F042F801BD80B586B018220021684658
S31508000E3000F0CCFB2020FFF750FF0420FFF72BFF24
S31508000E40C020009002200190032002900020039009
S31508000E5000200490082005906946574800F0AEFC2B
S31508000E6007B000BD80B586B018220021684600F09C
S31508000E70ADFB5FF00070FFF71FFF5FF08060FFF7C4
S31508000E801BFF4FF44050009002200190032002906F
S31508000E9000200390002004900920059069464948DF
S31508000EA000F08CFC07B000BD10B586B018220021F2
S31508000EB0684600F08BFB48F61870009001200190F8
S31508000EC00120029000200390012004903E4C6946C0
S31508000ED0200000F073FC4FF400612000FFF71CFFB0
S31508000EE04FF400600090012001900120029000203C
S31508000EF00390012004906946200000F05FFC4FF43F
S31508000F0000612000FFF708FF4FF480700090012071
S31508000F100190012002900020039001200490264CA5
S31508000F206946200000F04AFC4FF480712000FFF764
S31508000F30F1FE06B010BD80B500F0D2FC1E4800F0E8
S31508000F40C7FB204800F0C4FB1F4800F0C1FB5FF058
S31508000F500070FFF7BCFE5FF48020FFF7B8FE08209C
S31508000F60FFF7A4FE0420FFF7A1FE0220FFF79EFE6E
S31508000F700120FFF79BFE4FF48040FFF7B9FE01BD45
S31508000F800A0A0A00003802400838024004380240BB
S31508000F900080BCFF303802404038024044380240E6
S31508000FA0003C02401C2800084C2800087C28000841
S31508000FB0AC280008DC280008000802400C290008B4
S31508000FC0000E2707000402400000024070470EE0AA
S31508000FD002684368024408305FEAC37C44BF4B4456
S31508000FE05B1E52F804CB43F804CB091FF9D150F81D
S31508000FF0041B0029ECD1704780B500F01DFD01BD2A
S3150800100010B500F029FD002809D11248FFF79BFE0C
S315080010101148FFF798FE1148FFF795FE18E000F013
S3150800102049FD0F48FFF78FFE0E48FFF78CFE00F0CC
S315080010309FFAFFF779FB00F013FD0B4908400B49AF
S31508001040086000F00DFD001D046800F0F7FCA047DD
S3150800105010BD0000482A0008BC270008942A00088A
S31508001060A8290008602A000880FFFF1F08ED00E095
S3150800107070B504000D00160005E0287820706D1C78
S31508001080641C00F00AF83000461E80B20028F4D12D
S3150800109070BD80B500F052FD01BD80B500F053FD6E
S315080010A001BD00002DE9F84381460E0014001D001D
S315080010B00120DFF8D871387E012801D102202FE0FF
S315080010C0012038764CF25038404600F042F80100CC
S315080010D0C9B2002921D14946300022002B00002937
S315080010E004D11100C9B200F08FF80EE0012904D12D
S315080010F0110089B200F079F807E0022903D111003E
S3150800110000F064F801E000F04CF8404600F021F8E1
S315080011105F490A68520852000A6000213976C0B24F
S31508001120BDE8F28300205A490A68002A08D55A4AB7
S315080011305A4B13605A4B13600968002900D50120E1
S31508001140C0B270475248016851F000410160002062
S31508001150704738B50400002000204C49C861FFF7E5
S3150800116007FB05004B480168C9030BD514F1010FAD
S31508001170F8D0002C04D0FFF7FBFA401B8442F1D2CA
S3150800118003200DE00168C90701D501210160006847
S3150800119010F0F20F03D000F044F8012000E0002020
S315080011A032BD10B43A490C6834F440740C600C68CB
S315080011B054F440740C600C6854F001040C6002602E
S315080011C0BFF36F8F001D036010BC7047304A136869
S315080011D033F440731360136853F400731360136891
S315080011E053F00103136001607047294A136833F40A
S315080011F040731360136853F480731360136853F0D5
S315080012000103136001807047214A136833F4407361
S31508001210136013681360136853F0010313600170B9
S3150800122070471C480168C90606D51849CA6952F0AC
S315080012300802CA61102101600168890606D51349AA
S31508001240CA6952F00402CA61202101600168490690
S3150800125006D50E49CA6952F00202CA6140210160E8
S315080012600168090606D50949CA6952F00102CA6128
S31508001270802101600168890706D50449CA6952F0C8
S315080012801002CA6102210160704700004C05002067
S31508001290103C02400C3C0240043C024023016745D6
S315080012A0AB89EFCD80B5FFF7F8FEFCE72DE9F843EB
S315080012B004000D0001200020DFF86861307E012857
S315080012C001D1022044E0012030764CF250384046E5
S315080012D0FFF73FFF07003800C0B2002834D15FF09F
S315080012E0FF302860206801280ED161682069C0B2E5
S315080012F000F086F84046FFF72CFF07004A480168C9
S3150800130031F0040101601DE0D4F8089001E019F1FC
S315080013100109E168A0684118894513D22169C9B253
S31508001320484600F017F84046FFF713FF07003E4807
S31508001330016831F0FA0101603800C0B20028E6D031
S31508001340C5F8009000F034F8002030763800C0B2B6
S31508001350BDE8F28300220A00D2B2002A01D1002198
S315080013600EE00A00D2B2012A02D14FF4807107E0DA
S31508001370C9B2022902D14FF4007101E04FF440715D
S31508001380294A136833F440731360136819431160CC
S31508001390116831F0F8011160032113688840184379
S315080013A050F002001060106850F4803010607047EA
S315080013B01E48016889050FD5016831F4007101607E
S315080013C0016851F400610160016831F4006101604F
S315080013D0016851F400710160016849050FD501687B
S315080013E031F480610160016851F48051016001683F
S315080013F031F480510160016851F4806101607047E1
S3150800140009490A6832F440720A600A6852F004020E
S315080014100A600A68C0B252EA002252F480320A60B0
S31508001420704700004C050020103C0240003C02407A
S3150800143031B5FFF79DF90400009D15F1010F02D0A3
S31508001440044800784519FFF793F9001BA842FAD318
S3150800145031BD00BF09000020C16851F40051C160C8
S315080014607047C16831F40051C1607047016931F4B1
S3150800147090410161416931F02A0141617047006874
S31508001480C00910F001007047C9B24160704718B52D
S3150800149087B01B4C2000FFF7E4FF5FF4E1300090B3
S315080014A00020019000200290002003900C20049058
S315080014B000200590002006906946200000F0DBFB1E
S315080014C02000FFF7D3FF2000FFF7C6FF08B010BDC6
S315080014D038B501000A4DC9B22800FFF7D5FFFFF756
S315080014E036F904000A342800FFF7C9FF002805D199
S315080014F0FFF7D3FDFFF72BF98442F4D231BD000084
S315080015000014014080B5C0B2FFF7E2FF01BD80B507
S31508001510FFF772FDFFF7BDFDFFF7F6F800F090FA4A
S3150800152000F0ACFA00F006FC01BD80B5FFF7B5FD8A
S31508001530FFF704F900F0ADFA00F005FC01BD000064
S3150800154080B51948016851F400710160016851F4C9
S3150800155080610160016851F480710160032000F028
S3150800156074FC002000F098FCFFF748FC002002BD40
S3150800157080B50E485FF0FF310160002202600C481A
S315080015800160002202600B480160002202600A48DE
S315080015900160002202600948016000210160FFF72E
S315080015A0CAFC002002BD0000003C02402038024070
S315080015B024380240103802401438024018380240D5
S315080015C001490860704700000400002010B5044671
S315080015D010460A460146204600F084FC204610BD07
S315080015E030B4046891FAA1F3B3FA83F303255B00D8
S315080015F09D40AC4391FAA1F1B1FA81F149008A40C4
S315080016002243026030BC704743688B4351431943F9
S315080016104160704730B4846891FAA1F3B3FA83F352
S3150800162003255B009D40AC4391FAA1F1B1FA81F123
S3150800163049008A402243826030BC704730B4C4688F
S3150800164091FAA1F3B3FA83F303255B009D40AC43FB
S3150800165091FAA1F1B1FA81F149008A402243C260A8
S3150800166030BC704730B4046A91FAA1F3B3FA83F335
S315080016700F259B009D40AC4391FAA1F1B1FA81F187
S3150800168089008A402243026230BC704730B4446AFB
S315080016900B001B0A93FAA3F3B3FA83F30F259B00F7
S315080016A09D40AC43090A91FAA1F1B1FA81F189008A
S315080016B08A402243426230BC704736490A68104362
S315080016C00860704733490A6832EA000008607047C4
S315080016D010B500243049884206D10120FFF7EDFFF6
S315080016E00120FFF7EFFF52E02C49884206D102207D
S315080016F0FFF7E3FF0220FFF7E5FF48E028498842A5
S3150800170006D10420FFF7D9FF0420FFF7DBFF3EE0F0
S315080017102449884206D10820FFF7CFFF0820FFF7A3
S31508001720D1FF34E02049884206D11020FFF7C5FFD3
S315080017301020FFF7C7FF2AE01C49884206D120205F
S31508001740FFF7BBFF2020FFF7BDFF20E018498842BE
S3150800175006D14020FFF7B1FF4020FFF7B3FF16E0A0
S315080017601449884206D18020FFF7A7FF8020FFF79B
S31508001770A9FF0CE01049884208D14FF48070FFF7A2
S315080017809CFF4FF48070FFF79DFF00E001242000C6
S31508001790C0B210BD103802400000024000040240EA
S315080017A000080240000C02400010024000140240EB
S315080017B000180240001C024000200240F8B505004F
S315080017C00E00306890FAA0F0B0FA80F734E072693B
S315080017D021002800FFF75AFF28E030680124BC40A2
S315080017E00440002C27D07068012802D070680228AF
S315080017F009D1B26821002800FFF70CFFF2683168AA
S315080018002800FFF701FF326921002800FFF716FFBD
S31508001810706802280AD194FAA4F0B0FA80F0082871
S31508001820D5D2726921002800FFF71CFF72682100D3
S315080018302800FFF7D5FE7F1C3068F8400028CCD179
S315080018400020F2BD6F48016851F001010160704740
S315080018506C480068400810F00100704769490A683A
S3150800186032F0F80252EAC0020A6070476648006819
S3150800187010F00C0070476448006810F0F0007047DC
S315080018806148006810F4E05070475F48006810F43B
S31508001890604070475B480068400E10F001007047D2
S315080018A05A480068C0F3881070475848006810F412
S315080018B0403070475548006810F480007047534818
S315080018C0006810F03F0070474E480068C00E10F0E0
S315080018D0010070474F48016851F0807101607047F8
S315080018E080B50020FFF7AEFFFFF7B2FF0128FBD156
S315080018F00020454908605FF0FF314748014031F054
S315080019008061404801601020FFF7A8FFFFF7C2FF7B
S315080019100028FBD1FFF7D8FF0028FBD13F483B49F9
S3150800192008603F483A49086000203E490860FFF7CA
S31508001930D1FF002002BD10B5040000F00EF82060AB
S31508001940206800F01EF86060606800F025F8A06066
S31508001950606800F02BF8E06010BD80B50020FFF746
S3150800196085FF002804D0042804D0082804D006E0FF
S315080019702D4805E02D4803E000F022F800E02A484B
S3150800198002BD10B50400FFF776FF2949C0F303101E
S31508001990085CC440200010BD10B50400FFF770FFB6
S315080019A02449800A085CC440200010BD10B5040014
S315080019B0FFF76BFF1F49400B085CC440200010BDB1
S315080019C070B500200020FFF775FF002803D0B0F59A
S315080019D0800F02D003E0144C02E0144C00E0124CD5
S315080019E0FFF76DFF0500FFF75BFF0600B4FBF5F098
S315080019F006FB00F6FFF759FF000C401C4000B6FB3B
S31508001A00F0F070BD00380240083802400438024041
S31508001A108438024074380240FFFFF2FE103000247A
S31508001A20003000200C3802400024F40040787D0184
S31508001A30742A0008BC2A000872B6704762B6704756
S31508001A4080B5FEF799FE01BD80B5FEF79EFE02BD84
S31508001A5080B5FEF7CCFE02BD80B5FEF728FF02BDB5
S31508001A6080B5FEF770FF02BD80B5FEF7E9FE0028D7
S31508001A7001D1002001E0FEF74DFF02BD80B500F060
S31508001A8065FAFFF704FD00F0F5FC0120244908700B
S31508001A9001BD1CB5234C6946200000F085FD0128D0
S31508001AA007D101201E4908709DF80010200000F09B
S31508001AB072FA13BD704780B5194A1278012A02D105
S31508001AC0C9B200F042FD00F060FA01BD1448007882
S31508001AD0002805D0022807D004D3032806D007E03B
S31508001AE0812006E0082004E0002002E0002000E053
S31508001AF0812080B270470A480078002805D002285D
S31508001B0007D004D3032806D007E0812006E0082082
S31508001B1004E0002002E0002000E0812080B2704747
S31508001B2008000020A004002010B5002400F023FAC5
S31508001B30002800D001242000C0B210BD80B5642062
S31508001B4000F095FD01BD80B500F094FD01BD0000D3
S31508001B50C068400B10F001007047026932F4405229
S31508001B60114301617047426932F440721143416181
S31508001B707047F0B4B2F5004F3ED17FF063021924E6
S31508001B8004FB01F55E00B5FBF6F56426B5FBF6F534
S31508001B9004FB01F65F00B6FBF7F604FB01F75FEA04
S31508001BA0430CB7FBFCF75FF0640CB7FBFCF702FBD2
S31508001BB00766F60032366427B6FBF7F6760016F4A3
S31508001BC0F87616EB051604FB01F55F00B5FBF7F58D
S31508001BD061435B00B1FBF3F16423B1FBF3F102FB54
S31508001BE00152D20032326421B2FBF1F111F0070141
S31508001BF08E19B6B286603CE07FF06302192404FBB6
S31508001C0001F59E00B5FBF6F56426B5FBF6F504FB73
S31508001C1001F69F00B6FBF7F604FB01F75FEA830CB3
S31508001C20B7FBFCF75FF0640CB7FBFCF702FB076633
S31508001C30360132366427B6FBF7F616F0F00616EBD1
S31508001C40051604FB01F59F00B5FBF7F561439B00FC
S31508001C50B1FBF3F16423B1FBF3F102FB015212016C
S31508001C6032326421B2FBF1F111F00F018E19B6B2CE
S31508001C708660F0BC7047F8B584B005000F000126F1
S31508001C8000242800FFF764FF00283FD1E9682848A8
S31508001C90014078680143F868014338690143B86927
S31508001CA00143E960B9682800FFF757FF79692800FA
S31508001CB0FFF759FF6846FFF73EFE1748854201D1F0
S31508001CC0039C17E01548854201D1029C12E014488E
S31508001CD0854201D1029C0DE01248854201D1039C40
S31508001CE008E01148854201D1029C03E00F4885426D
S31508001CF000D1029C002C09D03868002806D000269E
S31508001D003B68BA6921002800FFF733FF3000C0B2EC
S31508001D1005B0F0BD0000000000100140004400407E
S31508001D200048004000140140004C004000500040AC
S31508001D30F369FFFF80B501201449087000F01CF80C
S31508001D4000F001F801BD10B5FFF7EEFE012812D02C
S31508001D500E4C207801280ED1FEF7F9FC0C490A68CA
S31508001D600C4909688A1812F5FA72904203D30020C2
S31508001D702070FFF745F910BD80B5044800780128A2
S31508001D8003D1FEF7E4FC0349086001BD8205002083
S31508001D90700500206C05002010F00700374B1A6804
S31508001DA04FF6FF010A4052EA0022354802431A60FC
S31508001DB0704732480068C0F302207047020052B2EA
S31508001DC0002A04D409012F4A40B2115407E0090138
S31508001DD02D4A40B210F00F00104400F8041C70475A
S31508001DE010B410F00700D0F10703052B01D3042324
S31508001DF001E0D0F10703041D072C01D2002000E002
S31508001E00C01E012414FA03F35B1E1940814014FA1C
S31508001E1000F0401E1040084310BC704780B5411EB4
S31508001E20B1F1807F01D301200EE0401E17490860FA
S31508001E300F215FF0FF30FFF7C1FF0020144908604B
S31508001E40072014490860002002BD80B5FFF7A4FFEB
S31508001E5001BD70B504000D0016000020FFF7A9FFAC
S31508001E6032002900FFF7BCFF0100200040B2FFF74F
S31508001E70A5FF70BD80B5FFF7D1FF02BD0CED00E0F0
S31508001E800000FA0500E400E018ED00E014E000E0C8
S31508001E9018E000E010E000E010B504004FF47A7096
S31508001EA00D490978B0FBF1F00C490968B1FBF0F06F
S31508001EB0FFF7E0FF002801D001200CE0102C09D222
S31508001EC0002221005FF0FF30FFF7C3FF04480460DB
S31508001ED0002000E0012010BD0900002004000020B9
S31508001EE00000002062F30F2262F31F42401810F030
S31508001EF0030308D0C91A1FD3DB0748BF00F8012D12
S31508001F0028BF20F8022D130030B4144615461039A0
S31508001F1028BF20E93C00FAD8490728BF20E90C0069
S31508001F2048BF40F8042D890028BF20F8022D48BF75
S31508001F3000F8012D30BC7047C91818BF00F8012DEC
S31508001F40CB0728BF00F8012D70470000DFF85804BA
S31508001F50002180F881100021C0F88810002180F83F
S31508001F6084100021A0F88610002180F88310002133
S31508001F7080F882107047DFF8300490F88100002856
S31508001F8001D1002000E0012070470020DFF8181476
S31508001F9081F88400704710B50178FF2917D100F041
S31508001FA0A6F8DFF8044494F88400012802D110202A
S31508001FB000F07DF8B4F98600012807DB012084F8D3
S31508001FC08400B4F98610200000F054F810BDDFF83C
S31508001FD0D81391F8811001294BD10178C92932D03B
S31508001FE0CC293FD0CF293AD0D0292FD0D12933D0E8
S31508001FF0D2292ED0F32917D0F4290FD0F5290AD0E3
S31508002000F6290ED0FA2912D0FC2913D0FD2914D0AE
S31508002010FE2915D029E000F0D8F8C2E700F0F7F855
S31508002020BFE700F0C5F8BCE700F018F9B9E700F01B
S31508002030AAF8B6E700F0A2F8B3E700F08DF8B0E723
S3150800204000F07DF8ADE700F03AF9AAE700F059F993
S31508002050A7E700F01FF9A4E700F084F9A1E700F06C
S3150800206098F99EE700F0A4F99BE7202000F01FF8F6
S3150800207097E7ABE780B589B2FFF71DFD01BDF8B557
S3150800208004000D001600002704E02078C719641C18
S31508002090FFF703F82800451E0028F6D1FFB237607F
S315080020A00120F2BD0020C04981F882007047BE4970
S315080020B0FE220A7048700220A1F8860070470100C7
S315080020C000200A7810434A7850EA02208A7850EAB3
S315080020D00240C97850EA0160704708700200120A87
S315080020E04A700200120C8A70000EC870704710B54C
S315080020F0FFF7D8FFAC4C012084F88100FF20207040
S3150800210000206070607850F0100060700020A070A9
S31508002110A078A070FFF7DAFCE070FFF7ECFC2071FE
S31508002120FFF7E9FC80B2000A60710120A071012066
S31508002130E0710820A4F88600FFF782FC10BD10B5F0
S31508002140994C002084F88100FFF7ACFFFF2020702F
S315080021500120A4F8860010BD9348FF2101700021D4
S31508002160417090F8821081700021C17000210171C0
S31508002170002141710621A0F88610704780B500201D
S31508002180FFF795FF01BD10B5874CFF2020708748E3
S31508002190C4F88800002060700020A0700020E0705D
S315080021A00720211DFFF799FF0820A4F8860010BD17
S315080021B010B57D4CFF212170001DFFF780FFC4F884
S315080021C088000120A4F8860010BD38B50400FFF782
S315080021D07DFC80B2401E6178884203DA2220FFF730
S315080021E066FF13E06278704D681C92B2D5F88810C5
S315080021F0FEF73EFFFF202870D5F888106078411852
S31508002200C5F888106078401CA5F8860031BD38B539
S315080022100400FFF75BFC80B2401E6178884203DA4F
S315080022202220FFF744FF18E05F4D201DFFF747FF08
S31508002230C5F888006278681C92B2D5F88810FEF74F
S3150800224017FFFF202870D5F8881060784118C5F860
S3150800225088106078401CA5F8860031BD1CB50021A1
S315080022600091514CFF212170001DFFF728FF010046
S315080022706A46D4F88800FFF702FF6070211D0098AF
S31508002280FFF72BFF0020A0700020E0700820A4F8BC
S31508002290860013BD10B5444CFF20207000206070E6
S315080022A00020A070FFF712FCE070002020710020CB
S315080022B060710020A0710720A4F8860010BD38B50B
S315080022C00400FFF703FC0100374D621C89B2491E62
S315080022D0D5F88800FFF7B8FB002803D13120FFF7AF
S315080022E0E6FE0DE0FF202870FFF7F0FBD5F8881012
S315080022F080B2401E4018C5F888000120A5F886005F
S3150800230031BD38B50400FFF7E1FB80B2801E617865
S31508002310884203DA2220FFF7CAFE22E0224DFF2078
S3150800232028700120A5F886006078002807D1FFF7F5
S315080023309BFB002802D13120FFF7B9FE11E0A21C51
S315080023406178D5F88800FFF77FFB002803D1312094
S31508002350FFF7ADFE05E0D5F8881060784118C5F896
S31508002360881031BD38B5104CD4F88850001DFFF7D9
S31508002370A6FE01002800FFF76BFB002803D13120D9
S31508002380FFF795FE04E0FF2020700120A4F88600E0
S3150800239031BD80B5FEF734FE0348FF2101700121E7
S315080023A0A0F8861001BD000014040020C42A000805
S315080023B080B53120FFF77BFE01BD0000090481616D
S315080023C07047F8B584B004000D0016001F00684673
S315080023D0FFF7B1FA02984FF47A71B0FBF1F10022D7
S315080023E000E0521C1000C0B2122840D2954BA446F9
S315080023F01FFA8CFC1000C0B213F810E01000C0B22F
S3150800240003EB4000407810EB0E00401C00FB0CF07C
S31508002410B1FBF0FC00FB1C100028E2D1A4461FFA11
S315080024208CFC1000C0B213F810E01000C0B203EB29
S315080024304000407810EB0E0E1EF1010E0EFB0CFC50
S31508002440B1FBFCF0288028880028CAD0288840F2EA
S31508002450014C6045C5DA1000C0B213F810003070A0
S31508002460D2B203EB420040783870012000E0002029
S3150800247005B0F0BD80B500F001F801BD30B58BB0F0
S315080024800020ADF8020000208DF8010000208DF82C
S31508002490000040F2EB756B460DF101020DF10201E9
S315080024A0FA20FFF78EFF002804D14FF4BF71664863
S315080024B0FEF7F8FE654C664820600020207600206E
S315080024C060760020A0760120E076002020770020A4
S315080024D060770020A0600020E0609DF80100401EA3
S315080024E0000420619DF80000401E00056061BDF8EB
S315080024F0020060602000FDF745FE002D02D46D0540
S31508002500544805E025F00045ED0055F0040552480D
S315080025100E2006900E200A900020079001200890B1
S3150800252000200190002002900020039000200490D3
S31508002530002005900120099001A92000FDF7D8FE8A
S315080025402000FDF76AFF0BB030BD30B587B002003A
S315080025504FF4FF60002803D401900020039004E0A4
S3150800256020F0004002900420039000200490C9B295
S315080025700591364D6B4601A92800FDF77FFFC0B2CD
S3150800258000280FD1FEF7E3F804003234009928003A
S31508002590FDF7F9FF002805D0FEF77FFDFEF7D7F80F
S315080025A08442F3D207B030BD78B587B003000C007B
S315080025B040F2EB7600256A4600212448FDF7F9FF2C
S315080025C0C0B200283AD10098B04217D10298002824
S315080025D014D101254FF480712048FFF7EFFE2049FA
S315080025E00868401C08601421B0FBF1F201FB1200D8
S315080025F000281DD12E20FEF785FF19E00198B0426C
S3150800260016D10298042813D101254FF48071134876
S31508002610FFF7D4FE12490868401C08601421B0FB75
S31508002620F1F201FB1200002802D16020FEF76AFFD2
S315080026302800C0B2012801D1049820702800C0B231
S3150800264008B070BD6029000854270008240500203A
S31508002650006800400400E0FFFCFF1F00000802407D
S315080026607405002081617047090481617047124929
S315080026700880704710B5FEF76AF8104C2168884242
S3150800268018D30F490878002807D1012008704FF49D
S3150800269000610C48FFF7E6FF06E0002008704FF4DB
S315080026A000610848FFF7E0FFFEF751F8024909887C
S315080026B00818206010BD000080050020780500205D
S315080026C083050020000002400D49086850F001000B
S315080026D0086000200B4A10600A680B4802400A602E
S315080026E00A480B4A1060086830F480200860002009
S315080026F0084908605FF000600749086070470000F5
S315080027000038024008380240FFFFF6FE1030002469
S31508002710043802400C38024008ED00E030B40025C9
S3150800272012E050F8042BD30744BF4A44521E091F2F
S31508002730042942F8045BFAD213468C0744BF158075
S315080027409B1CC90748BF1D7050F8041B0029E8D117
S3150800275030BC7047523A5C53544D333246323035AA
S3150800276052432D426F6F7465725C536F7572636561
S315080027705C41524D434D335F53544D333246325CC0
S3150800278063616E2E63000000523A5C53544D333237
S315080027904632303552432D426F6F7465725C536F03
S315080027A0757263655C41524D434D335F53544D33E7
S315080027B03246325C666C6173682E6300202D2D3EAE
S315080027C020696620284E766D566572696679436873
S315080027D065636B73756D2829203D3D20424C545F17
S315080027E046414C534529200A000000000080000895
S315080027F0004000000200000000C000080040000081
S3150800280003000000000001080000010004000000A9
S315080028100000020800000200050000002D2D2D2DE5
S315080028202D2D2D2D2D2D2D2D2D2D2D2D2D2D2D2DCA
S315080028302D2D2D2D2D2D2D2D2D2D2D2D2D2D2D2DBA
S315080028402D2D2D2D2D2D2D2D0A0000002F2A20206F
S3150800285020202053544D33324632303552432042DD
S315080028606F6F746572202D20566572312E313020B7
S315080028702020202020202A2F0A00000020202020A7
S31508002880202E20424F4F545F4E564D5F53495A45AE
S315080028905F4B42203D203235362020202020202044
S315080028A020202020202020200A0000002020202090
S315080028B0202E20424F4F545F4350555F5553455283
S315080028C05F50524F4752414D5F53544152545F48EF
S315080028D04F4F4B20283029200A0000002D2D2D2D82
S315080028E02D2D2D2D2D2D2D2D2D2D2D2D2D2D2D2D0A
S315080028F02D2D2D2D2D2D2D2D2D2D2D2D2D2D2D2DFA
S315080029002D2D2D2D2D2D2D2D0A0A0000523A5C5302
S31508002910544D33324632303552432D426F6F74650B
S31508002920725C426F6F745F4D43555C426F6F745CA7
S315080029306D61696E2E63000010B507497944183138
S31508002940064C7C44163404E00A68081D114488477E
S315080029500146A142F8D110BD2C0000004C00000031
S3150800296005020602060307030803090309040A0405
S315080029700B040C040C050D050E050F050F061006B5
S315080029801007100899FDFFFF780500000C000020CD
S31508002990000000003BE6FFFF0C00000004010000F9
S315080029A000000020000000004E766D5665726966CC
S315080029B079436865636B73756D28292069732047A9
S315080029C06F6F642021210A0000F00DF8002801D05D
S315080029D0FFF7B2FFAFF300800020AFF30080FEF7E9
S315080029E0C8F900F002F80120704700F001B80000AD
S315080029F00746384600F002F8FBE7000080B5AFF35B
S31508002A000080024A11001820ABBEFBE72600020030
S31508002A100A466C61736856657269667943686563C8
S31508002A206B73756D2829202D3E2000000548014648
S31508002A3003B4684680F30988AFF30080AFF30080DB
S31508002A40FFF7C2FFA5EDF5FE437075537461727406
S31508002A505573657250726F6772616D3B28290A005B
S31508002A604A756D7020746F204D61696E2829200A99
S31508002A700A00000000000000000000000102030434
S31508002A80060708090148804701480047C926000883
S31508002A902D2A000852657475726E0A0A0000000035
S31508002AA0100000000024F4000401000054525545AB
S31508002AB00A00000046414C53450A00000000000089
S31508002AC0010203044F70656E424C5400FFF7FEBFC7
S31508002AD0FFF7FEBFFFF7FEBFFFF7FEBFFFF7FEBF1C
S31508002AE0FFF7FEBFFFF7FEBFFFF7FEBFFFF7FEBF0C
S31508002AF0FFF7FEBFFFF7FEBFFFF7FEBFFFF7FEBFFC
S31508002B00FFF7FEBFFFF7FEBFFFF7FEBFFFF7FEBFEB
S31508002B10FFF7FEBFFFF7FEBFFFF7FEBFFFF7FEBFDB
S31508002B20FFF7FEBFFFF7FEBFFFF7FEBFFFF7FEBFCB
S31508002B30FFF7FEBFFFF7FEBFFFF7FEBFFFF7FEBFBB
S31508002B40FFF7FEBFFFF7FEBFFFF7FEBFFFF7FEBFAB
S31508002B50FFF7FEBFFFF7FEBFFFF7FEBFFFF7FEBF9B
S31508002B60FFF7FEBFFFF7FEBFFFF7FEBFFFF7FEBF8B
S31508002B70FFF7FEBFFFF7FEBFFFF7FEBFFFF7FEBF7B
S31508002B80FFF7FEBFFFF7FEBFFFF7FEBFFFF7FEBF6B
S31508002B90FFF7FEBFFFF7FEBFFFF7FEBFFFF7FEBF5B
S31508002BA0FFF7FEBFFFF7FEBFFFF7FEBFFFF7FEBF4B
S31508002BB0FFF7FEBFFFF7FEBFFFF7FEBFFFF7FEBF3B
S31508002BC0FFF7FEBFFFF7FEBFFFF7FEBFFFF7FEBF2B
S31508002BD0FFF7FEBFFFF7FEBFFFF7FEBFFFF7FEBF1B
S31508002BE0FFF7FEBFFFF7FEBFFFF7FEBFFFF7FEBF0B
S31508002BF0FFF7FEBFFFF7FEBFFFF7FEBFFFF7FEBFFB
S31508002C00FFF7FEBFFFF7FEBFFFF7FEBFFFF7FEBFEA
S31508002C10FFF7FEBFFFF7FEBFFFF7FEBFFFF7FEBFDA
S31508002C20FFF7FEBFFFF7FEBFFFF7FEBFFFF7FEBFCA
S70508002A2D9B
